{
	"apps/contract/contracts/notary/NotaryAccount.sol": {
		"NotaryAccount": {
			"abi": [
				{
					"inputs": [
						{
							"internalType": "contract NotaryPublic",
							"name": "_notaryPublic",
							"type": "address"
						}
					],
					"stateMutability": "nonpayable",
					"type": "constructor"
				},
				{
					"inputs": [
						{
							"internalType": "address",
							"name": "target",
							"type": "address"
						},
						{
							"internalType": "bytes",
							"name": "data",
							"type": "bytes"
						}
					],
					"name": "notaryCall",
					"outputs": [],
					"stateMutability": "nonpayable",
					"type": "function"
				},
				{
					"inputs": [],
					"name": "notaryPublic",
					"outputs": [
						{
							"internalType": "contract NotaryPublic",
							"name": "",
							"type": "address"
						}
					],
					"stateMutability": "view",
					"type": "function"
				}
			],
			"devdoc": {
				"kind": "dev",
				"methods": {},
				"version": 1
			},
			"evm": {
				"assembly": "    /* \"apps/contract/contracts/notary/NotaryAccount.sol\":92:655  contract NotaryAccount {... */\n  mstore(0x40, 0xa0)\n    /* \"apps/contract/contracts/notary/NotaryAccount.sol\":170:255  constructor(NotaryPublic _notaryPublic) {... */\n  callvalue\n  dup1\n  iszero\n  tag_1\n  jumpi\n  0x00\n  dup1\n  revert\ntag_1:\n  pop\n  mload(0x40)\n  sub(codesize, bytecodeSize)\n  dup1\n  bytecodeSize\n  dup4\n  codecopy\n  dup2\n  dup2\n  add\n  0x40\n  mstore\n  dup2\n  add\n  swap1\n  tag_2\n  swap2\n  swap1\n  tag_3\n  jump\t// in\ntag_2:\n    /* \"apps/contract/contracts/notary/NotaryAccount.sol\":235:248  _notaryPublic */\n  dup1\n    /* \"apps/contract/contracts/notary/NotaryAccount.sol\":220:248  notaryPublic = _notaryPublic */\n  0xffffffffffffffffffffffffffffffffffffffff\n  and\n  0x80\n  dup2\n  0xffffffffffffffffffffffffffffffffffffffff\n  and\n  dup2\n  mstore\n  pop\n  pop\n    /* \"apps/contract/contracts/notary/NotaryAccount.sol\":170:255  constructor(NotaryPublic _notaryPublic) {... */\n  pop\n    /* \"apps/contract/contracts/notary/NotaryAccount.sol\":92:655  contract NotaryAccount {... */\n  jump(tag_6)\n    /* \"#utility.yul\":88:205   */\ntag_8:\n    /* \"#utility.yul\":197:198   */\n  0x00\n    /* \"#utility.yul\":194:195   */\n  dup1\n    /* \"#utility.yul\":187:199   */\n  revert\n    /* \"#utility.yul\":334:460   */\ntag_10:\n    /* \"#utility.yul\":371:378   */\n  0x00\n    /* \"#utility.yul\":411:453   */\n  0xffffffffffffffffffffffffffffffffffffffff\n    /* \"#utility.yul\":404:409   */\n  dup3\n    /* \"#utility.yul\":400:454   */\n  and\n    /* \"#utility.yul\":389:454   */\n  swap1\n  pop\n    /* \"#utility.yul\":334:460   */\n  swap2\n  swap1\n  pop\n  jump\t// out\n    /* \"#utility.yul\":466:562   */\ntag_11:\n    /* \"#utility.yul\":503:510   */\n  0x00\n    /* \"#utility.yul\":532:556   */\n  tag_21\n    /* \"#utility.yul\":550:555   */\n  dup3\n    /* \"#utility.yul\":532:556   */\n  tag_10\n  jump\t// in\ntag_21:\n    /* \"#utility.yul\":521:556   */\n  swap1\n  pop\n    /* \"#utility.yul\":466:562   */\n  swap2\n  swap1\n  pop\n  jump\t// out\n    /* \"#utility.yul\":568:684   */\ntag_12:\n    /* \"#utility.yul\":625:632   */\n  0x00\n    /* \"#utility.yul\":654:678   */\n  tag_23\n    /* \"#utility.yul\":672:677   */\n  dup3\n    /* \"#utility.yul\":654:678   */\n  tag_11\n  jump\t// in\ntag_23:\n    /* \"#utility.yul\":643:678   */\n  swap1\n  pop\n    /* \"#utility.yul\":568:684   */\n  swap2\n  swap1\n  pop\n  jump\t// out\n    /* \"#utility.yul\":690:852   */\ntag_13:\n    /* \"#utility.yul\":783:827   */\n  tag_25\n    /* \"#utility.yul\":821:826   */\n  dup2\n    /* \"#utility.yul\":783:827   */\n  tag_12\n  jump\t// in\ntag_25:\n    /* \"#utility.yul\":776:781   */\n  dup2\n    /* \"#utility.yul\":773:828   */\n  eq\n    /* \"#utility.yul\":763:846   */\n  tag_26\n  jumpi\n    /* \"#utility.yul\":842:843   */\n  0x00\n    /* \"#utility.yul\":839:840   */\n  dup1\n    /* \"#utility.yul\":832:844   */\n  revert\n    /* \"#utility.yul\":763:846   */\ntag_26:\n    /* \"#utility.yul\":690:852   */\n  pop\n  jump\t// out\n    /* \"#utility.yul\":858:1041   */\ntag_14:\n    /* \"#utility.yul\":935:940   */\n  0x00\n    /* \"#utility.yul\":966:972   */\n  dup2\n    /* \"#utility.yul\":960:973   */\n  mload\n    /* \"#utility.yul\":951:973   */\n  swap1\n  pop\n    /* \"#utility.yul\":982:1035   */\n  tag_28\n    /* \"#utility.yul\":1029:1034   */\n  dup2\n    /* \"#utility.yul\":982:1035   */\n  tag_13\n  jump\t// in\ntag_28:\n    /* \"#utility.yul\":858:1041   */\n  swap3\n  swap2\n  pop\n  pop\n  jump\t// out\n    /* \"#utility.yul\":1047:1438   */\ntag_3:\n    /* \"#utility.yul\":1137:1143   */\n  0x00\n    /* \"#utility.yul\":1186:1188   */\n  0x20\n    /* \"#utility.yul\":1174:1183   */\n  dup3\n    /* \"#utility.yul\":1165:1172   */\n  dup5\n    /* \"#utility.yul\":1161:1184   */\n  sub\n    /* \"#utility.yul\":1157:1189   */\n  slt\n    /* \"#utility.yul\":1154:1273   */\n  iszero\n  tag_30\n  jumpi\n    /* \"#utility.yul\":1192:1271   */\n  tag_31\n  tag_8\n  jump\t// in\ntag_31:\n    /* \"#utility.yul\":1154:1273   */\ntag_30:\n    /* \"#utility.yul\":1312:1313   */\n  0x00\n    /* \"#utility.yul\":1337:1421   */\n  tag_32\n    /* \"#utility.yul\":1413:1420   */\n  dup5\n    /* \"#utility.yul\":1404:1410   */\n  dup3\n    /* \"#utility.yul\":1393:1402   */\n  dup6\n    /* \"#utility.yul\":1389:1411   */\n  add\n    /* \"#utility.yul\":1337:1421   */\n  tag_14\n  jump\t// in\ntag_32:\n    /* \"#utility.yul\":1327:1421   */\n  swap2\n  pop\n    /* \"#utility.yul\":1283:1431   */\n  pop\n    /* \"#utility.yul\":1047:1438   */\n  swap3\n  swap2\n  pop\n  pop\n  jump\t// out\n    /* \"apps/contract/contracts/notary/NotaryAccount.sol\":92:655  contract NotaryAccount {... */\ntag_6:\n  mload(0x80)\n  codecopy(0x00, dataOffset(sub_0), dataSize(sub_0))\n  0x00\n  assignImmutable(\"0x9d6b7fbd0ded42ab14e47300e428df3f38e4fbb3a7f790d898a87bff4f86606b\")\n  return(0x00, dataSize(sub_0))\nstop\n\nsub_0: assembly {\n        /* \"apps/contract/contracts/notary/NotaryAccount.sol\":92:655  contract NotaryAccount {... */\n      mstore(0x40, 0x80)\n      callvalue\n      dup1\n      iszero\n      tag_1\n      jumpi\n      0x00\n      dup1\n      revert\n    tag_1:\n      pop\n      jumpi(tag_2, lt(calldatasize, 0x04))\n      shr(0xe0, calldataload(0x00))\n      dup1\n      0x668a7146\n      eq\n      tag_3\n      jumpi\n      dup1\n      0xa70ff2ba\n      eq\n      tag_4\n      jumpi\n    tag_2:\n      0x00\n      dup1\n      revert\n        /* \"apps/contract/contracts/notary/NotaryAccount.sol\":261:653  function notaryCall(address target, bytes memory data) external {... */\n    tag_3:\n      tag_5\n      0x04\n      dup1\n      calldatasize\n      sub\n      dup2\n      add\n      swap1\n      tag_6\n      swap2\n      swap1\n      tag_7\n      jump\t// in\n    tag_6:\n      tag_8\n      jump\t// in\n    tag_5:\n      stop\n        /* \"apps/contract/contracts/notary/NotaryAccount.sol\":121:163  NotaryPublic public immutable notaryPublic */\n    tag_4:\n      tag_9\n      tag_10\n      jump\t// in\n    tag_9:\n      mload(0x40)\n      tag_11\n      swap2\n      swap1\n      tag_12\n      jump\t// in\n    tag_11:\n      mload(0x40)\n      dup1\n      swap2\n      sub\n      swap1\n      return\n        /* \"apps/contract/contracts/notary/NotaryAccount.sol\":261:653  function notaryCall(address target, bytes memory data) external {... */\n    tag_8:\n        /* \"apps/contract/contracts/notary/NotaryAccount.sol\":356:368  notaryPublic */\n      immutable(\"0x9d6b7fbd0ded42ab14e47300e428df3f38e4fbb3a7f790d898a87bff4f86606b\")\n        /* \"apps/contract/contracts/notary/NotaryAccount.sol\":356:382  notaryPublic.hasMembership */\n      0xffffffffffffffffffffffffffffffffffffffff\n      and\n      0xa88db6ad\n        /* \"apps/contract/contracts/notary/NotaryAccount.sol\":383:393  msg.sender */\n      caller\n        /* \"apps/contract/contracts/notary/NotaryAccount.sol\":356:394  notaryPublic.hasMembership(msg.sender) */\n      mload(0x40)\n      dup3\n      0xffffffff\n      and\n      0xe0\n      shl\n      dup2\n      mstore\n      0x04\n      add\n      tag_14\n      swap2\n      swap1\n      tag_15\n      jump\t// in\n    tag_14:\n      0x20\n      mload(0x40)\n      dup1\n      dup4\n      sub\n      dup2\n      dup7\n      gas\n      staticcall\n      iszero\n      dup1\n      iszero\n      tag_17\n      jumpi\n      returndatasize\n      0x00\n      dup1\n      returndatacopy\n      revert(0x00, returndatasize)\n    tag_17:\n      pop\n      pop\n      pop\n      pop\n      mload(0x40)\n      returndatasize\n      not(0x1f)\n      0x1f\n      dup3\n      add\n      and\n      dup3\n      add\n      dup1\n      0x40\n      mstore\n      pop\n      dup2\n      add\n      swap1\n      tag_18\n      swap2\n      swap1\n      tag_19\n      jump\t// in\n    tag_18:\n        /* \"apps/contract/contracts/notary/NotaryAccount.sol\":335:454  require(... */\n      tag_20\n      jumpi\n      mload(0x40)\n      0x08c379a000000000000000000000000000000000000000000000000000000000\n      dup2\n      mstore\n      0x04\n      add\n      tag_21\n      swap1\n      tag_22\n      jump\t// in\n    tag_21:\n      mload(0x40)\n      dup1\n      swap2\n      sub\n      swap1\n      revert\n    tag_20:\n        /* \"apps/contract/contracts/notary/NotaryAccount.sol\":466:478  bool success */\n      0x00\n        /* \"apps/contract/contracts/notary/NotaryAccount.sol\":480:499  bytes memory result */\n      dup1\n        /* \"apps/contract/contracts/notary/NotaryAccount.sol\":503:509  target */\n      dup4\n        /* \"apps/contract/contracts/notary/NotaryAccount.sol\":503:514  target.call */\n      0xffffffffffffffffffffffffffffffffffffffff\n      and\n        /* \"apps/contract/contracts/notary/NotaryAccount.sol\":515:519  data */\n      dup4\n        /* \"apps/contract/contracts/notary/NotaryAccount.sol\":503:520  target.call(data) */\n      mload(0x40)\n      tag_23\n      swap2\n      swap1\n      tag_24\n      jump\t// in\n    tag_23:\n      0x00\n      mload(0x40)\n      dup1\n      dup4\n      sub\n      dup2\n      0x00\n      dup7\n      gas\n      call\n      swap2\n      pop\n      pop\n      returndatasize\n      dup1\n      0x00\n      dup2\n      eq\n      tag_27\n      jumpi\n      mload(0x40)\n      swap2\n      pop\n      and(add(returndatasize, 0x3f), not(0x1f))\n      dup3\n      add\n      0x40\n      mstore\n      returndatasize\n      dup3\n      mstore\n      returndatasize\n      0x00\n      0x20\n      dup5\n      add\n      returndatacopy\n      jump(tag_26)\n    tag_27:\n      0x60\n      swap2\n      pop\n    tag_26:\n      pop\n        /* \"apps/contract/contracts/notary/NotaryAccount.sol\":465:520  (bool success, bytes memory result) = target.call(data) */\n      swap2\n      pop\n      swap2\n      pop\n        /* \"apps/contract/contracts/notary/NotaryAccount.sol\":535:542  success */\n      dup2\n        /* \"apps/contract/contracts/notary/NotaryAccount.sol\":530:647  if (!success) {... */\n      tag_28\n      jumpi\n        /* \"apps/contract/contracts/notary/NotaryAccount.sol\":615:621  result */\n      dup1\n        /* \"apps/contract/contracts/notary/NotaryAccount.sol\":609:622  mload(result) */\n      mload\n        /* \"apps/contract/contracts/notary/NotaryAccount.sol\":604:606  32 */\n      0x20\n        /* \"apps/contract/contracts/notary/NotaryAccount.sol\":596:602  result */\n      dup3\n        /* \"apps/contract/contracts/notary/NotaryAccount.sol\":592:607  add(result, 32) */\n      add\n        /* \"apps/contract/contracts/notary/NotaryAccount.sol\":585:623  revert(add(result, 32), mload(result)) */\n      revert\n        /* \"apps/contract/contracts/notary/NotaryAccount.sol\":530:647  if (!success) {... */\n    tag_28:\n        /* \"apps/contract/contracts/notary/NotaryAccount.sol\":325:653  {... */\n      pop\n      pop\n        /* \"apps/contract/contracts/notary/NotaryAccount.sol\":261:653  function notaryCall(address target, bytes memory data) external {... */\n      pop\n      pop\n      jump\t// out\n        /* \"apps/contract/contracts/notary/NotaryAccount.sol\":121:163  NotaryPublic public immutable notaryPublic */\n    tag_10:\n      immutable(\"0x9d6b7fbd0ded42ab14e47300e428df3f38e4fbb3a7f790d898a87bff4f86606b\")\n      dup2\n      jump\t// out\n        /* \"#utility.yul\":7:82   */\n    tag_29:\n        /* \"#utility.yul\":40:46   */\n      0x00\n        /* \"#utility.yul\":73:75   */\n      0x40\n        /* \"#utility.yul\":67:76   */\n      mload\n        /* \"#utility.yul\":57:76   */\n      swap1\n      pop\n        /* \"#utility.yul\":7:82   */\n      swap1\n      jump\t// out\n        /* \"#utility.yul\":88:205   */\n    tag_30:\n        /* \"#utility.yul\":197:198   */\n      0x00\n        /* \"#utility.yul\":194:195   */\n      dup1\n        /* \"#utility.yul\":187:199   */\n      revert\n        /* \"#utility.yul\":211:328   */\n    tag_31:\n        /* \"#utility.yul\":320:321   */\n      0x00\n        /* \"#utility.yul\":317:318   */\n      dup1\n        /* \"#utility.yul\":310:322   */\n      revert\n        /* \"#utility.yul\":334:460   */\n    tag_32:\n        /* \"#utility.yul\":371:378   */\n      0x00\n        /* \"#utility.yul\":411:453   */\n      0xffffffffffffffffffffffffffffffffffffffff\n        /* \"#utility.yul\":404:409   */\n      dup3\n        /* \"#utility.yul\":400:454   */\n      and\n        /* \"#utility.yul\":389:454   */\n      swap1\n      pop\n        /* \"#utility.yul\":334:460   */\n      swap2\n      swap1\n      pop\n      jump\t// out\n        /* \"#utility.yul\":466:562   */\n    tag_33:\n        /* \"#utility.yul\":503:510   */\n      0x00\n        /* \"#utility.yul\":532:556   */\n      tag_68\n        /* \"#utility.yul\":550:555   */\n      dup3\n        /* \"#utility.yul\":532:556   */\n      tag_32\n      jump\t// in\n    tag_68:\n        /* \"#utility.yul\":521:556   */\n      swap1\n      pop\n        /* \"#utility.yul\":466:562   */\n      swap2\n      swap1\n      pop\n      jump\t// out\n        /* \"#utility.yul\":568:690   */\n    tag_34:\n        /* \"#utility.yul\":641:665   */\n      tag_70\n        /* \"#utility.yul\":659:664   */\n      dup2\n        /* \"#utility.yul\":641:665   */\n      tag_33\n      jump\t// in\n    tag_70:\n        /* \"#utility.yul\":634:639   */\n      dup2\n        /* \"#utility.yul\":631:666   */\n      eq\n        /* \"#utility.yul\":621:684   */\n      tag_71\n      jumpi\n        /* \"#utility.yul\":680:681   */\n      0x00\n        /* \"#utility.yul\":677:678   */\n      dup1\n        /* \"#utility.yul\":670:682   */\n      revert\n        /* \"#utility.yul\":621:684   */\n    tag_71:\n        /* \"#utility.yul\":568:690   */\n      pop\n      jump\t// out\n        /* \"#utility.yul\":696:835   */\n    tag_35:\n        /* \"#utility.yul\":742:747   */\n      0x00\n        /* \"#utility.yul\":780:786   */\n      dup2\n        /* \"#utility.yul\":767:787   */\n      calldataload\n        /* \"#utility.yul\":758:787   */\n      swap1\n      pop\n        /* \"#utility.yul\":796:829   */\n      tag_73\n        /* \"#utility.yul\":823:828   */\n      dup2\n        /* \"#utility.yul\":796:829   */\n      tag_34\n      jump\t// in\n    tag_73:\n        /* \"#utility.yul\":696:835   */\n      swap3\n      swap2\n      pop\n      pop\n      jump\t// out\n        /* \"#utility.yul\":841:958   */\n    tag_36:\n        /* \"#utility.yul\":950:951   */\n      0x00\n        /* \"#utility.yul\":947:948   */\n      dup1\n        /* \"#utility.yul\":940:952   */\n      revert\n        /* \"#utility.yul\":964:1081   */\n    tag_37:\n        /* \"#utility.yul\":1073:1074   */\n      0x00\n        /* \"#utility.yul\":1070:1071   */\n      dup1\n        /* \"#utility.yul\":1063:1075   */\n      revert\n        /* \"#utility.yul\":1087:1189   */\n    tag_38:\n        /* \"#utility.yul\":1128:1134   */\n      0x00\n        /* \"#utility.yul\":1179:1181   */\n      0x1f\n        /* \"#utility.yul\":1175:1182   */\n      not\n        /* \"#utility.yul\":1170:1172   */\n      0x1f\n        /* \"#utility.yul\":1163:1168   */\n      dup4\n        /* \"#utility.yul\":1159:1173   */\n      add\n        /* \"#utility.yul\":1155:1183   */\n      and\n        /* \"#utility.yul\":1145:1183   */\n      swap1\n      pop\n        /* \"#utility.yul\":1087:1189   */\n      swap2\n      swap1\n      pop\n      jump\t// out\n        /* \"#utility.yul\":1195:1375   */\n    tag_39:\n        /* \"#utility.yul\":1243:1320   */\n      0x4e487b7100000000000000000000000000000000000000000000000000000000\n        /* \"#utility.yul\":1240:1241   */\n      0x00\n        /* \"#utility.yul\":1233:1321   */\n      mstore\n        /* \"#utility.yul\":1340:1344   */\n      0x41\n        /* \"#utility.yul\":1337:1338   */\n      0x04\n        /* \"#utility.yul\":1330:1345   */\n      mstore\n        /* \"#utility.yul\":1364:1368   */\n      0x24\n        /* \"#utility.yul\":1361:1362   */\n      0x00\n        /* \"#utility.yul\":1354:1369   */\n      revert\n        /* \"#utility.yul\":1381:1662   */\n    tag_40:\n        /* \"#utility.yul\":1464:1491   */\n      tag_79\n        /* \"#utility.yul\":1486:1490   */\n      dup3\n        /* \"#utility.yul\":1464:1491   */\n      tag_38\n      jump\t// in\n    tag_79:\n        /* \"#utility.yul\":1456:1462   */\n      dup2\n        /* \"#utility.yul\":1452:1492   */\n      add\n        /* \"#utility.yul\":1594:1600   */\n      dup2\n        /* \"#utility.yul\":1582:1592   */\n      dup2\n        /* \"#utility.yul\":1579:1601   */\n      lt\n        /* \"#utility.yul\":1558:1576   */\n      0xffffffffffffffff\n        /* \"#utility.yul\":1546:1556   */\n      dup3\n        /* \"#utility.yul\":1543:1577   */\n      gt\n        /* \"#utility.yul\":1540:1602   */\n      or\n        /* \"#utility.yul\":1537:1625   */\n      iszero\n      tag_80\n      jumpi\n        /* \"#utility.yul\":1605:1623   */\n      tag_81\n      tag_39\n      jump\t// in\n    tag_81:\n        /* \"#utility.yul\":1537:1625   */\n    tag_80:\n        /* \"#utility.yul\":1645:1655   */\n      dup1\n        /* \"#utility.yul\":1641:1643   */\n      0x40\n        /* \"#utility.yul\":1634:1656   */\n      mstore\n        /* \"#utility.yul\":1424:1662   */\n      pop\n        /* \"#utility.yul\":1381:1662   */\n      pop\n      pop\n      jump\t// out\n        /* \"#utility.yul\":1668:1797   */\n    tag_41:\n        /* \"#utility.yul\":1702:1708   */\n      0x00\n        /* \"#utility.yul\":1729:1749   */\n      tag_83\n      tag_29\n      jump\t// in\n    tag_83:\n        /* \"#utility.yul\":1719:1749   */\n      swap1\n      pop\n        /* \"#utility.yul\":1758:1791   */\n      tag_84\n        /* \"#utility.yul\":1786:1790   */\n      dup3\n        /* \"#utility.yul\":1778:1784   */\n      dup3\n        /* \"#utility.yul\":1758:1791   */\n      tag_40\n      jump\t// in\n    tag_84:\n        /* \"#utility.yul\":1668:1797   */\n      swap2\n      swap1\n      pop\n      jump\t// out\n        /* \"#utility.yul\":1803:2110   */\n    tag_42:\n        /* \"#utility.yul\":1864:1868   */\n      0x00\n        /* \"#utility.yul\":1954:1972   */\n      0xffffffffffffffff\n        /* \"#utility.yul\":1946:1952   */\n      dup3\n        /* \"#utility.yul\":1943:1973   */\n      gt\n        /* \"#utility.yul\":1940:1996   */\n      iszero\n      tag_86\n      jumpi\n        /* \"#utility.yul\":1976:1994   */\n      tag_87\n      tag_39\n      jump\t// in\n    tag_87:\n        /* \"#utility.yul\":1940:1996   */\n    tag_86:\n        /* \"#utility.yul\":2014:2043   */\n      tag_88\n        /* \"#utility.yul\":2036:2042   */\n      dup3\n        /* \"#utility.yul\":2014:2043   */\n      tag_38\n      jump\t// in\n    tag_88:\n        /* \"#utility.yul\":2006:2043   */\n      swap1\n      pop\n        /* \"#utility.yul\":2098:2102   */\n      0x20\n        /* \"#utility.yul\":2092:2096   */\n      dup2\n        /* \"#utility.yul\":2088:2103   */\n      add\n        /* \"#utility.yul\":2080:2103   */\n      swap1\n      pop\n        /* \"#utility.yul\":1803:2110   */\n      swap2\n      swap1\n      pop\n      jump\t// out\n        /* \"#utility.yul\":2116:2264   */\n    tag_43:\n        /* \"#utility.yul\":2214:2220   */\n      dup3\n        /* \"#utility.yul\":2209:2212   */\n      dup2\n        /* \"#utility.yul\":2204:2207   */\n      dup4\n        /* \"#utility.yul\":2191:2221   */\n      calldatacopy\n        /* \"#utility.yul\":2255:2256   */\n      0x00\n        /* \"#utility.yul\":2246:2252   */\n      dup4\n        /* \"#utility.yul\":2241:2244   */\n      dup4\n        /* \"#utility.yul\":2237:2253   */\n      add\n        /* \"#utility.yul\":2230:2257   */\n      mstore\n        /* \"#utility.yul\":2116:2264   */\n      pop\n      pop\n      pop\n      jump\t// out\n        /* \"#utility.yul\":2270:2693   */\n    tag_44:\n        /* \"#utility.yul\":2347:2352   */\n      0x00\n        /* \"#utility.yul\":2372:2437   */\n      tag_91\n        /* \"#utility.yul\":2388:2436   */\n      tag_92\n        /* \"#utility.yul\":2429:2435   */\n      dup5\n        /* \"#utility.yul\":2388:2436   */\n      tag_42\n      jump\t// in\n    tag_92:\n        /* \"#utility.yul\":2372:2437   */\n      tag_41\n      jump\t// in\n    tag_91:\n        /* \"#utility.yul\":2363:2437   */\n      swap1\n      pop\n        /* \"#utility.yul\":2460:2466   */\n      dup3\n        /* \"#utility.yul\":2453:2458   */\n      dup2\n        /* \"#utility.yul\":2446:2467   */\n      mstore\n        /* \"#utility.yul\":2498:2502   */\n      0x20\n        /* \"#utility.yul\":2491:2496   */\n      dup2\n        /* \"#utility.yul\":2487:2503   */\n      add\n        /* \"#utility.yul\":2536:2539   */\n      dup5\n        /* \"#utility.yul\":2527:2533   */\n      dup5\n        /* \"#utility.yul\":2522:2525   */\n      dup5\n        /* \"#utility.yul\":2518:2534   */\n      add\n        /* \"#utility.yul\":2515:2540   */\n      gt\n        /* \"#utility.yul\":2512:2624   */\n      iszero\n      tag_93\n      jumpi\n        /* \"#utility.yul\":2543:2622   */\n      tag_94\n      tag_37\n      jump\t// in\n    tag_94:\n        /* \"#utility.yul\":2512:2624   */\n    tag_93:\n        /* \"#utility.yul\":2633:2687   */\n      tag_95\n        /* \"#utility.yul\":2680:2686   */\n      dup5\n        /* \"#utility.yul\":2675:2678   */\n      dup3\n        /* \"#utility.yul\":2670:2673   */\n      dup6\n        /* \"#utility.yul\":2633:2687   */\n      tag_43\n      jump\t// in\n    tag_95:\n        /* \"#utility.yul\":2353:2693   */\n      pop\n        /* \"#utility.yul\":2270:2693   */\n      swap4\n      swap3\n      pop\n      pop\n      pop\n      jump\t// out\n        /* \"#utility.yul\":2712:3050   */\n    tag_45:\n        /* \"#utility.yul\":2767:2772   */\n      0x00\n        /* \"#utility.yul\":2816:2819   */\n      dup3\n        /* \"#utility.yul\":2809:2813   */\n      0x1f\n        /* \"#utility.yul\":2801:2807   */\n      dup4\n        /* \"#utility.yul\":2797:2814   */\n      add\n        /* \"#utility.yul\":2793:2820   */\n      slt\n        /* \"#utility.yul\":2783:2905   */\n      tag_97\n      jumpi\n        /* \"#utility.yul\":2824:2903   */\n      tag_98\n      tag_36\n      jump\t// in\n    tag_98:\n        /* \"#utility.yul\":2783:2905   */\n    tag_97:\n        /* \"#utility.yul\":2941:2947   */\n      dup2\n        /* \"#utility.yul\":2928:2948   */\n      calldataload\n        /* \"#utility.yul\":2966:3044   */\n      tag_99\n        /* \"#utility.yul\":3040:3043   */\n      dup5\n        /* \"#utility.yul\":3032:3038   */\n      dup3\n        /* \"#utility.yul\":3025:3029   */\n      0x20\n        /* \"#utility.yul\":3017:3023   */\n      dup7\n        /* \"#utility.yul\":3013:3030   */\n      add\n        /* \"#utility.yul\":2966:3044   */\n      tag_44\n      jump\t// in\n    tag_99:\n        /* \"#utility.yul\":2957:3044   */\n      swap2\n      pop\n        /* \"#utility.yul\":2773:3050   */\n      pop\n        /* \"#utility.yul\":2712:3050   */\n      swap3\n      swap2\n      pop\n      pop\n      jump\t// out\n        /* \"#utility.yul\":3056:3708   */\n    tag_7:\n        /* \"#utility.yul\":3133:3139   */\n      0x00\n        /* \"#utility.yul\":3141:3147   */\n      dup1\n        /* \"#utility.yul\":3190:3192   */\n      0x40\n        /* \"#utility.yul\":3178:3187   */\n      dup4\n        /* \"#utility.yul\":3169:3176   */\n      dup6\n        /* \"#utility.yul\":3165:3188   */\n      sub\n        /* \"#utility.yul\":3161:3193   */\n      slt\n        /* \"#utility.yul\":3158:3277   */\n      iszero\n      tag_101\n      jumpi\n        /* \"#utility.yul\":3196:3275   */\n      tag_102\n      tag_30\n      jump\t// in\n    tag_102:\n        /* \"#utility.yul\":3158:3277   */\n    tag_101:\n        /* \"#utility.yul\":3316:3317   */\n      0x00\n        /* \"#utility.yul\":3341:3394   */\n      tag_103\n        /* \"#utility.yul\":3386:3393   */\n      dup6\n        /* \"#utility.yul\":3377:3383   */\n      dup3\n        /* \"#utility.yul\":3366:3375   */\n      dup7\n        /* \"#utility.yul\":3362:3384   */\n      add\n        /* \"#utility.yul\":3341:3394   */\n      tag_35\n      jump\t// in\n    tag_103:\n        /* \"#utility.yul\":3331:3394   */\n      swap3\n      pop\n        /* \"#utility.yul\":3287:3404   */\n      pop\n        /* \"#utility.yul\":3471:3473   */\n      0x20\n        /* \"#utility.yul\":3460:3469   */\n      dup4\n        /* \"#utility.yul\":3456:3474   */\n      add\n        /* \"#utility.yul\":3443:3475   */\n      calldataload\n        /* \"#utility.yul\":3502:3520   */\n      0xffffffffffffffff\n        /* \"#utility.yul\":3494:3500   */\n      dup2\n        /* \"#utility.yul\":3491:3521   */\n      gt\n        /* \"#utility.yul\":3488:3605   */\n      iszero\n      tag_104\n      jumpi\n        /* \"#utility.yul\":3524:3603   */\n      tag_105\n      tag_31\n      jump\t// in\n    tag_105:\n        /* \"#utility.yul\":3488:3605   */\n    tag_104:\n        /* \"#utility.yul\":3629:3691   */\n      tag_106\n        /* \"#utility.yul\":3683:3690   */\n      dup6\n        /* \"#utility.yul\":3674:3680   */\n      dup3\n        /* \"#utility.yul\":3663:3672   */\n      dup7\n        /* \"#utility.yul\":3659:3681   */\n      add\n        /* \"#utility.yul\":3629:3691   */\n      tag_45\n      jump\t// in\n    tag_106:\n        /* \"#utility.yul\":3619:3691   */\n      swap2\n      pop\n        /* \"#utility.yul\":3414:3701   */\n      pop\n        /* \"#utility.yul\":3056:3708   */\n      swap3\n      pop\n      swap3\n      swap1\n      pop\n      jump\t// out\n        /* \"#utility.yul\":3714:3774   */\n    tag_46:\n        /* \"#utility.yul\":3742:3745   */\n      0x00\n        /* \"#utility.yul\":3763:3768   */\n      dup2\n        /* \"#utility.yul\":3756:3768   */\n      swap1\n      pop\n        /* \"#utility.yul\":3714:3774   */\n      swap2\n      swap1\n      pop\n      jump\t// out\n        /* \"#utility.yul\":3780:3922   */\n    tag_47:\n        /* \"#utility.yul\":3830:3839   */\n      0x00\n        /* \"#utility.yul\":3863:3916   */\n      tag_109\n        /* \"#utility.yul\":3881:3915   */\n      tag_110\n        /* \"#utility.yul\":3890:3914   */\n      tag_111\n        /* \"#utility.yul\":3908:3913   */\n      dup5\n        /* \"#utility.yul\":3890:3914   */\n      tag_32\n      jump\t// in\n    tag_111:\n        /* \"#utility.yul\":3881:3915   */\n      tag_46\n      jump\t// in\n    tag_110:\n        /* \"#utility.yul\":3863:3916   */\n      tag_32\n      jump\t// in\n    tag_109:\n        /* \"#utility.yul\":3850:3916   */\n      swap1\n      pop\n        /* \"#utility.yul\":3780:3922   */\n      swap2\n      swap1\n      pop\n      jump\t// out\n        /* \"#utility.yul\":3928:4054   */\n    tag_48:\n        /* \"#utility.yul\":3978:3987   */\n      0x00\n        /* \"#utility.yul\":4011:4048   */\n      tag_113\n        /* \"#utility.yul\":4042:4047   */\n      dup3\n        /* \"#utility.yul\":4011:4048   */\n      tag_47\n      jump\t// in\n    tag_113:\n        /* \"#utility.yul\":3998:4048   */\n      swap1\n      pop\n        /* \"#utility.yul\":3928:4054   */\n      swap2\n      swap1\n      pop\n      jump\t// out\n        /* \"#utility.yul\":4060:4206   */\n    tag_49:\n        /* \"#utility.yul\":4130:4139   */\n      0x00\n        /* \"#utility.yul\":4163:4200   */\n      tag_115\n        /* \"#utility.yul\":4194:4199   */\n      dup3\n        /* \"#utility.yul\":4163:4200   */\n      tag_48\n      jump\t// in\n    tag_115:\n        /* \"#utility.yul\":4150:4200   */\n      swap1\n      pop\n        /* \"#utility.yul\":4060:4206   */\n      swap2\n      swap1\n      pop\n      jump\t// out\n        /* \"#utility.yul\":4212:4383   */\n    tag_50:\n        /* \"#utility.yul\":4319:4376   */\n      tag_117\n        /* \"#utility.yul\":4370:4375   */\n      dup2\n        /* \"#utility.yul\":4319:4376   */\n      tag_49\n      jump\t// in\n    tag_117:\n        /* \"#utility.yul\":4314:4317   */\n      dup3\n        /* \"#utility.yul\":4307:4377   */\n      mstore\n        /* \"#utility.yul\":4212:4383   */\n      pop\n      pop\n      jump\t// out\n        /* \"#utility.yul\":4389:4651   */\n    tag_12:\n        /* \"#utility.yul\":4502:4506   */\n      0x00\n        /* \"#utility.yul\":4540:4542   */\n      0x20\n        /* \"#utility.yul\":4529:4538   */\n      dup3\n        /* \"#utility.yul\":4525:4543   */\n      add\n        /* \"#utility.yul\":4517:4543   */\n      swap1\n      pop\n        /* \"#utility.yul\":4553:4644   */\n      tag_119\n        /* \"#utility.yul\":4641:4642   */\n      0x00\n        /* \"#utility.yul\":4630:4639   */\n      dup4\n        /* \"#utility.yul\":4626:4643   */\n      add\n        /* \"#utility.yul\":4617:4623   */\n      dup5\n        /* \"#utility.yul\":4553:4644   */\n      tag_50\n      jump\t// in\n    tag_119:\n        /* \"#utility.yul\":4389:4651   */\n      swap3\n      swap2\n      pop\n      pop\n      jump\t// out\n        /* \"#utility.yul\":4657:4775   */\n    tag_51:\n        /* \"#utility.yul\":4744:4768   */\n      tag_121\n        /* \"#utility.yul\":4762:4767   */\n      dup2\n        /* \"#utility.yul\":4744:4768   */\n      tag_33\n      jump\t// in\n    tag_121:\n        /* \"#utility.yul\":4739:4742   */\n      dup3\n        /* \"#utility.yul\":4732:4769   */\n      mstore\n        /* \"#utility.yul\":4657:4775   */\n      pop\n      pop\n      jump\t// out\n        /* \"#utility.yul\":4781:5003   */\n    tag_15:\n        /* \"#utility.yul\":4874:4878   */\n      0x00\n        /* \"#utility.yul\":4912:4914   */\n      0x20\n        /* \"#utility.yul\":4901:4910   */\n      dup3\n        /* \"#utility.yul\":4897:4915   */\n      add\n        /* \"#utility.yul\":4889:4915   */\n      swap1\n      pop\n        /* \"#utility.yul\":4925:4996   */\n      tag_123\n        /* \"#utility.yul\":4993:4994   */\n      0x00\n        /* \"#utility.yul\":4982:4991   */\n      dup4\n        /* \"#utility.yul\":4978:4995   */\n      add\n        /* \"#utility.yul\":4969:4975   */\n      dup5\n        /* \"#utility.yul\":4925:4996   */\n      tag_51\n      jump\t// in\n    tag_123:\n        /* \"#utility.yul\":4781:5003   */\n      swap3\n      swap2\n      pop\n      pop\n      jump\t// out\n        /* \"#utility.yul\":5009:5099   */\n    tag_52:\n        /* \"#utility.yul\":5043:5050   */\n      0x00\n        /* \"#utility.yul\":5086:5091   */\n      dup2\n        /* \"#utility.yul\":5079:5092   */\n      iszero\n        /* \"#utility.yul\":5072:5093   */\n      iszero\n        /* \"#utility.yul\":5061:5093   */\n      swap1\n      pop\n        /* \"#utility.yul\":5009:5099   */\n      swap2\n      swap1\n      pop\n      jump\t// out\n        /* \"#utility.yul\":5105:5221   */\n    tag_53:\n        /* \"#utility.yul\":5175:5196   */\n      tag_126\n        /* \"#utility.yul\":5190:5195   */\n      dup2\n        /* \"#utility.yul\":5175:5196   */\n      tag_52\n      jump\t// in\n    tag_126:\n        /* \"#utility.yul\":5168:5173   */\n      dup2\n        /* \"#utility.yul\":5165:5197   */\n      eq\n        /* \"#utility.yul\":5155:5215   */\n      tag_127\n      jumpi\n        /* \"#utility.yul\":5211:5212   */\n      0x00\n        /* \"#utility.yul\":5208:5209   */\n      dup1\n        /* \"#utility.yul\":5201:5213   */\n      revert\n        /* \"#utility.yul\":5155:5215   */\n    tag_127:\n        /* \"#utility.yul\":5105:5221   */\n      pop\n      jump\t// out\n        /* \"#utility.yul\":5227:5364   */\n    tag_54:\n        /* \"#utility.yul\":5281:5286   */\n      0x00\n        /* \"#utility.yul\":5312:5318   */\n      dup2\n        /* \"#utility.yul\":5306:5319   */\n      mload\n        /* \"#utility.yul\":5297:5319   */\n      swap1\n      pop\n        /* \"#utility.yul\":5328:5358   */\n      tag_129\n        /* \"#utility.yul\":5352:5357   */\n      dup2\n        /* \"#utility.yul\":5328:5358   */\n      tag_53\n      jump\t// in\n    tag_129:\n        /* \"#utility.yul\":5227:5364   */\n      swap3\n      swap2\n      pop\n      pop\n      jump\t// out\n        /* \"#utility.yul\":5370:5715   */\n    tag_19:\n        /* \"#utility.yul\":5437:5443   */\n      0x00\n        /* \"#utility.yul\":5486:5488   */\n      0x20\n        /* \"#utility.yul\":5474:5483   */\n      dup3\n        /* \"#utility.yul\":5465:5472   */\n      dup5\n        /* \"#utility.yul\":5461:5484   */\n      sub\n        /* \"#utility.yul\":5457:5489   */\n      slt\n        /* \"#utility.yul\":5454:5573   */\n      iszero\n      tag_131\n      jumpi\n        /* \"#utility.yul\":5492:5571   */\n      tag_132\n      tag_30\n      jump\t// in\n    tag_132:\n        /* \"#utility.yul\":5454:5573   */\n    tag_131:\n        /* \"#utility.yul\":5612:5613   */\n      0x00\n        /* \"#utility.yul\":5637:5698   */\n      tag_133\n        /* \"#utility.yul\":5690:5697   */\n      dup5\n        /* \"#utility.yul\":5681:5687   */\n      dup3\n        /* \"#utility.yul\":5670:5679   */\n      dup6\n        /* \"#utility.yul\":5666:5688   */\n      add\n        /* \"#utility.yul\":5637:5698   */\n      tag_54\n      jump\t// in\n    tag_133:\n        /* \"#utility.yul\":5627:5698   */\n      swap2\n      pop\n        /* \"#utility.yul\":5583:5708   */\n      pop\n        /* \"#utility.yul\":5370:5715   */\n      swap3\n      swap2\n      pop\n      pop\n      jump\t// out\n        /* \"#utility.yul\":5721:5890   */\n    tag_55:\n        /* \"#utility.yul\":5805:5816   */\n      0x00\n        /* \"#utility.yul\":5839:5845   */\n      dup3\n        /* \"#utility.yul\":5834:5837   */\n      dup3\n        /* \"#utility.yul\":5827:5846   */\n      mstore\n        /* \"#utility.yul\":5879:5883   */\n      0x20\n        /* \"#utility.yul\":5874:5877   */\n      dup3\n        /* \"#utility.yul\":5870:5884   */\n      add\n        /* \"#utility.yul\":5855:5884   */\n      swap1\n      pop\n        /* \"#utility.yul\":5721:5890   */\n      swap3\n      swap2\n      pop\n      pop\n      jump\t// out\n        /* \"#utility.yul\":5896:6117   */\n    tag_56:\n        /* \"#utility.yul\":6036:6070   */\n      0x73656e646572206973206e6f74206e6f74617279207075626c6963206d656d62\n        /* \"#utility.yul\":6032:6033   */\n      0x00\n        /* \"#utility.yul\":6024:6030   */\n      dup3\n        /* \"#utility.yul\":6020:6034   */\n      add\n        /* \"#utility.yul\":6013:6071   */\n      mstore\n        /* \"#utility.yul\":6105:6109   */\n      0x6572000000000000000000000000000000000000000000000000000000000000\n        /* \"#utility.yul\":6100:6102   */\n      0x20\n        /* \"#utility.yul\":6092:6098   */\n      dup3\n        /* \"#utility.yul\":6088:6103   */\n      add\n        /* \"#utility.yul\":6081:6110   */\n      mstore\n        /* \"#utility.yul\":5896:6117   */\n      pop\n      jump\t// out\n        /* \"#utility.yul\":6123:6489   */\n    tag_57:\n        /* \"#utility.yul\":6265:6268   */\n      0x00\n        /* \"#utility.yul\":6286:6353   */\n      tag_137\n        /* \"#utility.yul\":6350:6352   */\n      0x22\n        /* \"#utility.yul\":6345:6348   */\n      dup4\n        /* \"#utility.yul\":6286:6353   */\n      tag_55\n      jump\t// in\n    tag_137:\n        /* \"#utility.yul\":6279:6353   */\n      swap2\n      pop\n        /* \"#utility.yul\":6362:6455   */\n      tag_138\n        /* \"#utility.yul\":6451:6454   */\n      dup3\n        /* \"#utility.yul\":6362:6455   */\n      tag_56\n      jump\t// in\n    tag_138:\n        /* \"#utility.yul\":6480:6482   */\n      0x40\n        /* \"#utility.yul\":6475:6478   */\n      dup3\n        /* \"#utility.yul\":6471:6483   */\n      add\n        /* \"#utility.yul\":6464:6483   */\n      swap1\n      pop\n        /* \"#utility.yul\":6123:6489   */\n      swap2\n      swap1\n      pop\n      jump\t// out\n        /* \"#utility.yul\":6495:6914   */\n    tag_22:\n        /* \"#utility.yul\":6661:6665   */\n      0x00\n        /* \"#utility.yul\":6699:6701   */\n      0x20\n        /* \"#utility.yul\":6688:6697   */\n      dup3\n        /* \"#utility.yul\":6684:6702   */\n      add\n        /* \"#utility.yul\":6676:6702   */\n      swap1\n      pop\n        /* \"#utility.yul\":6748:6757   */\n      dup2\n        /* \"#utility.yul\":6742:6746   */\n      dup2\n        /* \"#utility.yul\":6738:6758   */\n      sub\n        /* \"#utility.yul\":6734:6735   */\n      0x00\n        /* \"#utility.yul\":6723:6732   */\n      dup4\n        /* \"#utility.yul\":6719:6736   */\n      add\n        /* \"#utility.yul\":6712:6759   */\n      mstore\n        /* \"#utility.yul\":6776:6907   */\n      tag_140\n        /* \"#utility.yul\":6902:6906   */\n      dup2\n        /* \"#utility.yul\":6776:6907   */\n      tag_57\n      jump\t// in\n    tag_140:\n        /* \"#utility.yul\":6768:6907   */\n      swap1\n      pop\n        /* \"#utility.yul\":6495:6914   */\n      swap2\n      swap1\n      pop\n      jump\t// out\n        /* \"#utility.yul\":6920:7018   */\n    tag_58:\n        /* \"#utility.yul\":6971:6977   */\n      0x00\n        /* \"#utility.yul\":7005:7010   */\n      dup2\n        /* \"#utility.yul\":6999:7011   */\n      mload\n        /* \"#utility.yul\":6989:7011   */\n      swap1\n      pop\n        /* \"#utility.yul\":6920:7018   */\n      swap2\n      swap1\n      pop\n      jump\t// out\n        /* \"#utility.yul\":7024:7171   */\n    tag_59:\n        /* \"#utility.yul\":7125:7136   */\n      0x00\n        /* \"#utility.yul\":7162:7165   */\n      dup2\n        /* \"#utility.yul\":7147:7165   */\n      swap1\n      pop\n        /* \"#utility.yul\":7024:7171   */\n      swap3\n      swap2\n      pop\n      pop\n      jump\t// out\n        /* \"#utility.yul\":7177:7316   */\n    tag_60:\n        /* \"#utility.yul\":7266:7272   */\n      dup3\n        /* \"#utility.yul\":7261:7264   */\n      dup2\n        /* \"#utility.yul\":7256:7259   */\n      dup4\n        /* \"#utility.yul\":7250:7273   */\n      mcopy\n        /* \"#utility.yul\":7307:7308   */\n      0x00\n        /* \"#utility.yul\":7298:7304   */\n      dup4\n        /* \"#utility.yul\":7293:7296   */\n      dup4\n        /* \"#utility.yul\":7289:7305   */\n      add\n        /* \"#utility.yul\":7282:7309   */\n      mstore\n        /* \"#utility.yul\":7177:7316   */\n      pop\n      pop\n      pop\n      jump\t// out\n        /* \"#utility.yul\":7322:7708   */\n    tag_61:\n        /* \"#utility.yul\":7426:7429   */\n      0x00\n        /* \"#utility.yul\":7454:7492   */\n      tag_145\n        /* \"#utility.yul\":7486:7491   */\n      dup3\n        /* \"#utility.yul\":7454:7492   */\n      tag_58\n      jump\t// in\n    tag_145:\n        /* \"#utility.yul\":7508:7596   */\n      tag_146\n        /* \"#utility.yul\":7589:7595   */\n      dup2\n        /* \"#utility.yul\":7584:7587   */\n      dup6\n        /* \"#utility.yul\":7508:7596   */\n      tag_59\n      jump\t// in\n    tag_146:\n        /* \"#utility.yul\":7501:7596   */\n      swap4\n      pop\n        /* \"#utility.yul\":7605:7670   */\n      tag_147\n        /* \"#utility.yul\":7663:7669   */\n      dup2\n        /* \"#utility.yul\":7658:7661   */\n      dup6\n        /* \"#utility.yul\":7651:7655   */\n      0x20\n        /* \"#utility.yul\":7644:7649   */\n      dup7\n        /* \"#utility.yul\":7640:7656   */\n      add\n        /* \"#utility.yul\":7605:7670   */\n      tag_60\n      jump\t// in\n    tag_147:\n        /* \"#utility.yul\":7695:7701   */\n      dup1\n        /* \"#utility.yul\":7690:7693   */\n      dup5\n        /* \"#utility.yul\":7686:7702   */\n      add\n        /* \"#utility.yul\":7679:7702   */\n      swap2\n      pop\n        /* \"#utility.yul\":7430:7708   */\n      pop\n        /* \"#utility.yul\":7322:7708   */\n      swap3\n      swap2\n      pop\n      pop\n      jump\t// out\n        /* \"#utility.yul\":7714:7985   */\n    tag_24:\n        /* \"#utility.yul\":7844:7847   */\n      0x00\n        /* \"#utility.yul\":7866:7959   */\n      tag_149\n        /* \"#utility.yul\":7955:7958   */\n      dup3\n        /* \"#utility.yul\":7946:7952   */\n      dup5\n        /* \"#utility.yul\":7866:7959   */\n      tag_61\n      jump\t// in\n    tag_149:\n        /* \"#utility.yul\":7859:7959   */\n      swap2\n      pop\n        /* \"#utility.yul\":7976:7979   */\n      dup2\n        /* \"#utility.yul\":7969:7979   */\n      swap1\n      pop\n        /* \"#utility.yul\":7714:7985   */\n      swap3\n      swap2\n      pop\n      pop\n      jump\t// out\n\n    auxdata: 0xa26469706673582212208e13c2264c2c5391e6572252a98db8485fee1de3e2c5841f8759522a29761ad964736f6c63430008190033\n}\n",
				"bytecode": {
					"linkReferences": {},
					"object": "60a060405234801561000f575f80fd5b50604051610746380380610746833981810160405281019061003191906100da565b8073ffffffffffffffffffffffffffffffffffffffff1660808173ffffffffffffffffffffffffffffffffffffffff168152505050610105565b5f80fd5b5f73ffffffffffffffffffffffffffffffffffffffff82169050919050565b5f6100988261006f565b9050919050565b5f6100a98261008e565b9050919050565b6100b98161009f565b81146100c3575f80fd5b50565b5f815190506100d4816100b0565b92915050565b5f602082840312156100ef576100ee61006b565b5b5f6100fc848285016100c6565b91505092915050565b6080516106236101235f395f8181607401526101c801526106235ff3fe608060405234801561000f575f80fd5b5060043610610034575f3560e01c8063668a714614610038578063a70ff2ba14610054575b5f80fd5b610052600480360381019061004d9190610391565b610072565b005b61005c6101c6565b6040516100699190610446565b60405180910390f35b7f000000000000000000000000000000000000000000000000000000000000000073ffffffffffffffffffffffffffffffffffffffff1663a88db6ad336040518263ffffffff1660e01b81526004016100cb919061046e565b602060405180830381865afa1580156100e6573d5f803e3d5ffd5b505050506040513d601f19601f8201168201806040525081019061010a91906104bc565b610149576040517f08c379a000000000000000000000000000000000000000000000000000000000815260040161014090610567565b60405180910390fd5b5f808373ffffffffffffffffffffffffffffffffffffffff168360405161017091906105d7565b5f604051808303815f865af19150503d805f81146101a9576040519150601f19603f3d011682016040523d82523d5f602084013e6101ae565b606091505b5091509150816101c057805160208201fd5b50505050565b7f000000000000000000000000000000000000000000000000000000000000000081565b5f604051905090565b5f80fd5b5f80fd5b5f73ffffffffffffffffffffffffffffffffffffffff82169050919050565b5f610224826101fb565b9050919050565b6102348161021a565b811461023e575f80fd5b50565b5f8135905061024f8161022b565b92915050565b5f80fd5b5f80fd5b5f601f19601f8301169050919050565b7f4e487b71000000000000000000000000000000000000000000000000000000005f52604160045260245ffd5b6102a38261025d565b810181811067ffffffffffffffff821117156102c2576102c161026d565b5b80604052505050565b5f6102d46101ea565b90506102e0828261029a565b919050565b5f67ffffffffffffffff8211156102ff576102fe61026d565b5b6103088261025d565b9050602081019050919050565b828183375f83830152505050565b5f610335610330846102e5565b6102cb565b90508281526020810184848401111561035157610350610259565b5b61035c848285610315565b509392505050565b5f82601f83011261037857610377610255565b5b8135610388848260208601610323565b91505092915050565b5f80604083850312156103a7576103a66101f3565b5b5f6103b485828601610241565b925050602083013567ffffffffffffffff8111156103d5576103d46101f7565b5b6103e185828601610364565b9150509250929050565b5f819050919050565b5f61040e610409610404846101fb565b6103eb565b6101fb565b9050919050565b5f61041f826103f4565b9050919050565b5f61043082610415565b9050919050565b61044081610426565b82525050565b5f6020820190506104595f830184610437565b92915050565b6104688161021a565b82525050565b5f6020820190506104815f83018461045f565b92915050565b5f8115159050919050565b61049b81610487565b81146104a5575f80fd5b50565b5f815190506104b681610492565b92915050565b5f602082840312156104d1576104d06101f3565b5b5f6104de848285016104a8565b91505092915050565b5f82825260208201905092915050565b7f73656e646572206973206e6f74206e6f74617279207075626c6963206d656d625f8201527f6572000000000000000000000000000000000000000000000000000000000000602082015250565b5f6105516022836104e7565b915061055c826104f7565b604082019050919050565b5f6020820190508181035f83015261057e81610545565b9050919050565b5f81519050919050565b5f81905092915050565b8281835e5f83830152505050565b5f6105b182610585565b6105bb818561058f565b93506105cb818560208601610599565b80840191505092915050565b5f6105e282846105a7565b91508190509291505056fea26469706673582212208e13c2264c2c5391e6572252a98db8485fee1de3e2c5841f8759522a29761ad964736f6c63430008190033",
					"opcodes": "PUSH1 0xA0 PUSH1 0x40 MSTORE CALLVALUE DUP1 ISZERO PUSH2 0xF JUMPI PUSH0 DUP1 REVERT JUMPDEST POP PUSH1 0x40 MLOAD PUSH2 0x746 CODESIZE SUB DUP1 PUSH2 0x746 DUP4 CODECOPY DUP2 DUP2 ADD PUSH1 0x40 MSTORE DUP2 ADD SWAP1 PUSH2 0x31 SWAP2 SWAP1 PUSH2 0xDA JUMP JUMPDEST DUP1 PUSH20 0xFFFFFFFFFFFFFFFFFFFFFFFFFFFFFFFFFFFFFFFF AND PUSH1 0x80 DUP2 PUSH20 0xFFFFFFFFFFFFFFFFFFFFFFFFFFFFFFFFFFFFFFFF AND DUP2 MSTORE POP POP POP PUSH2 0x105 JUMP JUMPDEST PUSH0 DUP1 REVERT JUMPDEST PUSH0 PUSH20 0xFFFFFFFFFFFFFFFFFFFFFFFFFFFFFFFFFFFFFFFF DUP3 AND SWAP1 POP SWAP2 SWAP1 POP JUMP JUMPDEST PUSH0 PUSH2 0x98 DUP3 PUSH2 0x6F JUMP JUMPDEST SWAP1 POP SWAP2 SWAP1 POP JUMP JUMPDEST PUSH0 PUSH2 0xA9 DUP3 PUSH2 0x8E JUMP JUMPDEST SWAP1 POP SWAP2 SWAP1 POP JUMP JUMPDEST PUSH2 0xB9 DUP2 PUSH2 0x9F JUMP JUMPDEST DUP2 EQ PUSH2 0xC3 JUMPI PUSH0 DUP1 REVERT JUMPDEST POP JUMP JUMPDEST PUSH0 DUP2 MLOAD SWAP1 POP PUSH2 0xD4 DUP2 PUSH2 0xB0 JUMP JUMPDEST SWAP3 SWAP2 POP POP JUMP JUMPDEST PUSH0 PUSH1 0x20 DUP3 DUP5 SUB SLT ISZERO PUSH2 0xEF JUMPI PUSH2 0xEE PUSH2 0x6B JUMP JUMPDEST JUMPDEST PUSH0 PUSH2 0xFC DUP5 DUP3 DUP6 ADD PUSH2 0xC6 JUMP JUMPDEST SWAP2 POP POP SWAP3 SWAP2 POP POP JUMP JUMPDEST PUSH1 0x80 MLOAD PUSH2 0x623 PUSH2 0x123 PUSH0 CODECOPY PUSH0 DUP2 DUP2 PUSH1 0x74 ADD MSTORE PUSH2 0x1C8 ADD MSTORE PUSH2 0x623 PUSH0 RETURN INVALID PUSH1 0x80 PUSH1 0x40 MSTORE CALLVALUE DUP1 ISZERO PUSH2 0xF JUMPI PUSH0 DUP1 REVERT JUMPDEST POP PUSH1 0x4 CALLDATASIZE LT PUSH2 0x34 JUMPI PUSH0 CALLDATALOAD PUSH1 0xE0 SHR DUP1 PUSH4 0x668A7146 EQ PUSH2 0x38 JUMPI DUP1 PUSH4 0xA70FF2BA EQ PUSH2 0x54 JUMPI JUMPDEST PUSH0 DUP1 REVERT JUMPDEST PUSH2 0x52 PUSH1 0x4 DUP1 CALLDATASIZE SUB DUP2 ADD SWAP1 PUSH2 0x4D SWAP2 SWAP1 PUSH2 0x391 JUMP JUMPDEST PUSH2 0x72 JUMP JUMPDEST STOP JUMPDEST PUSH2 0x5C PUSH2 0x1C6 JUMP JUMPDEST PUSH1 0x40 MLOAD PUSH2 0x69 SWAP2 SWAP1 PUSH2 0x446 JUMP JUMPDEST PUSH1 0x40 MLOAD DUP1 SWAP2 SUB SWAP1 RETURN JUMPDEST PUSH32 0x0 PUSH20 0xFFFFFFFFFFFFFFFFFFFFFFFFFFFFFFFFFFFFFFFF AND PUSH4 0xA88DB6AD CALLER PUSH1 0x40 MLOAD DUP3 PUSH4 0xFFFFFFFF AND PUSH1 0xE0 SHL DUP2 MSTORE PUSH1 0x4 ADD PUSH2 0xCB SWAP2 SWAP1 PUSH2 0x46E JUMP JUMPDEST PUSH1 0x20 PUSH1 0x40 MLOAD DUP1 DUP4 SUB DUP2 DUP7 GAS STATICCALL ISZERO DUP1 ISZERO PUSH2 0xE6 JUMPI RETURNDATASIZE PUSH0 DUP1 RETURNDATACOPY RETURNDATASIZE PUSH0 REVERT JUMPDEST POP POP POP POP PUSH1 0x40 MLOAD RETURNDATASIZE PUSH1 0x1F NOT PUSH1 0x1F DUP3 ADD AND DUP3 ADD DUP1 PUSH1 0x40 MSTORE POP DUP2 ADD SWAP1 PUSH2 0x10A SWAP2 SWAP1 PUSH2 0x4BC JUMP JUMPDEST PUSH2 0x149 JUMPI PUSH1 0x40 MLOAD PUSH32 0x8C379A000000000000000000000000000000000000000000000000000000000 DUP2 MSTORE PUSH1 0x4 ADD PUSH2 0x140 SWAP1 PUSH2 0x567 JUMP JUMPDEST PUSH1 0x40 MLOAD DUP1 SWAP2 SUB SWAP1 REVERT JUMPDEST PUSH0 DUP1 DUP4 PUSH20 0xFFFFFFFFFFFFFFFFFFFFFFFFFFFFFFFFFFFFFFFF AND DUP4 PUSH1 0x40 MLOAD PUSH2 0x170 SWAP2 SWAP1 PUSH2 0x5D7 JUMP JUMPDEST PUSH0 PUSH1 0x40 MLOAD DUP1 DUP4 SUB DUP2 PUSH0 DUP7 GAS CALL SWAP2 POP POP RETURNDATASIZE DUP1 PUSH0 DUP2 EQ PUSH2 0x1A9 JUMPI PUSH1 0x40 MLOAD SWAP2 POP PUSH1 0x1F NOT PUSH1 0x3F RETURNDATASIZE ADD AND DUP3 ADD PUSH1 0x40 MSTORE RETURNDATASIZE DUP3 MSTORE RETURNDATASIZE PUSH0 PUSH1 0x20 DUP5 ADD RETURNDATACOPY PUSH2 0x1AE JUMP JUMPDEST PUSH1 0x60 SWAP2 POP JUMPDEST POP SWAP2 POP SWAP2 POP DUP2 PUSH2 0x1C0 JUMPI DUP1 MLOAD PUSH1 0x20 DUP3 ADD REVERT JUMPDEST POP POP POP POP JUMP JUMPDEST PUSH32 0x0 DUP2 JUMP JUMPDEST PUSH0 PUSH1 0x40 MLOAD SWAP1 POP SWAP1 JUMP JUMPDEST PUSH0 DUP1 REVERT JUMPDEST PUSH0 DUP1 REVERT JUMPDEST PUSH0 PUSH20 0xFFFFFFFFFFFFFFFFFFFFFFFFFFFFFFFFFFFFFFFF DUP3 AND SWAP1 POP SWAP2 SWAP1 POP JUMP JUMPDEST PUSH0 PUSH2 0x224 DUP3 PUSH2 0x1FB JUMP JUMPDEST SWAP1 POP SWAP2 SWAP1 POP JUMP JUMPDEST PUSH2 0x234 DUP2 PUSH2 0x21A JUMP JUMPDEST DUP2 EQ PUSH2 0x23E JUMPI PUSH0 DUP1 REVERT JUMPDEST POP JUMP JUMPDEST PUSH0 DUP2 CALLDATALOAD SWAP1 POP PUSH2 0x24F DUP2 PUSH2 0x22B JUMP JUMPDEST SWAP3 SWAP2 POP POP JUMP JUMPDEST PUSH0 DUP1 REVERT JUMPDEST PUSH0 DUP1 REVERT JUMPDEST PUSH0 PUSH1 0x1F NOT PUSH1 0x1F DUP4 ADD AND SWAP1 POP SWAP2 SWAP1 POP JUMP JUMPDEST PUSH32 0x4E487B7100000000000000000000000000000000000000000000000000000000 PUSH0 MSTORE PUSH1 0x41 PUSH1 0x4 MSTORE PUSH1 0x24 PUSH0 REVERT JUMPDEST PUSH2 0x2A3 DUP3 PUSH2 0x25D JUMP JUMPDEST DUP2 ADD DUP2 DUP2 LT PUSH8 0xFFFFFFFFFFFFFFFF DUP3 GT OR ISZERO PUSH2 0x2C2 JUMPI PUSH2 0x2C1 PUSH2 0x26D JUMP JUMPDEST JUMPDEST DUP1 PUSH1 0x40 MSTORE POP POP POP JUMP JUMPDEST PUSH0 PUSH2 0x2D4 PUSH2 0x1EA JUMP JUMPDEST SWAP1 POP PUSH2 0x2E0 DUP3 DUP3 PUSH2 0x29A JUMP JUMPDEST SWAP2 SWAP1 POP JUMP JUMPDEST PUSH0 PUSH8 0xFFFFFFFFFFFFFFFF DUP3 GT ISZERO PUSH2 0x2FF JUMPI PUSH2 0x2FE PUSH2 0x26D JUMP JUMPDEST JUMPDEST PUSH2 0x308 DUP3 PUSH2 0x25D JUMP JUMPDEST SWAP1 POP PUSH1 0x20 DUP2 ADD SWAP1 POP SWAP2 SWAP1 POP JUMP JUMPDEST DUP3 DUP2 DUP4 CALLDATACOPY PUSH0 DUP4 DUP4 ADD MSTORE POP POP POP JUMP JUMPDEST PUSH0 PUSH2 0x335 PUSH2 0x330 DUP5 PUSH2 0x2E5 JUMP JUMPDEST PUSH2 0x2CB JUMP JUMPDEST SWAP1 POP DUP3 DUP2 MSTORE PUSH1 0x20 DUP2 ADD DUP5 DUP5 DUP5 ADD GT ISZERO PUSH2 0x351 JUMPI PUSH2 0x350 PUSH2 0x259 JUMP JUMPDEST JUMPDEST PUSH2 0x35C DUP5 DUP3 DUP6 PUSH2 0x315 JUMP JUMPDEST POP SWAP4 SWAP3 POP POP POP JUMP JUMPDEST PUSH0 DUP3 PUSH1 0x1F DUP4 ADD SLT PUSH2 0x378 JUMPI PUSH2 0x377 PUSH2 0x255 JUMP JUMPDEST JUMPDEST DUP2 CALLDATALOAD PUSH2 0x388 DUP5 DUP3 PUSH1 0x20 DUP7 ADD PUSH2 0x323 JUMP JUMPDEST SWAP2 POP POP SWAP3 SWAP2 POP POP JUMP JUMPDEST PUSH0 DUP1 PUSH1 0x40 DUP4 DUP6 SUB SLT ISZERO PUSH2 0x3A7 JUMPI PUSH2 0x3A6 PUSH2 0x1F3 JUMP JUMPDEST JUMPDEST PUSH0 PUSH2 0x3B4 DUP6 DUP3 DUP7 ADD PUSH2 0x241 JUMP JUMPDEST SWAP3 POP POP PUSH1 0x20 DUP4 ADD CALLDATALOAD PUSH8 0xFFFFFFFFFFFFFFFF DUP2 GT ISZERO PUSH2 0x3D5 JUMPI PUSH2 0x3D4 PUSH2 0x1F7 JUMP JUMPDEST JUMPDEST PUSH2 0x3E1 DUP6 DUP3 DUP7 ADD PUSH2 0x364 JUMP JUMPDEST SWAP2 POP POP SWAP3 POP SWAP3 SWAP1 POP JUMP JUMPDEST PUSH0 DUP2 SWAP1 POP SWAP2 SWAP1 POP JUMP JUMPDEST PUSH0 PUSH2 0x40E PUSH2 0x409 PUSH2 0x404 DUP5 PUSH2 0x1FB JUMP JUMPDEST PUSH2 0x3EB JUMP JUMPDEST PUSH2 0x1FB JUMP JUMPDEST SWAP1 POP SWAP2 SWAP1 POP JUMP JUMPDEST PUSH0 PUSH2 0x41F DUP3 PUSH2 0x3F4 JUMP JUMPDEST SWAP1 POP SWAP2 SWAP1 POP JUMP JUMPDEST PUSH0 PUSH2 0x430 DUP3 PUSH2 0x415 JUMP JUMPDEST SWAP1 POP SWAP2 SWAP1 POP JUMP JUMPDEST PUSH2 0x440 DUP2 PUSH2 0x426 JUMP JUMPDEST DUP3 MSTORE POP POP JUMP JUMPDEST PUSH0 PUSH1 0x20 DUP3 ADD SWAP1 POP PUSH2 0x459 PUSH0 DUP4 ADD DUP5 PUSH2 0x437 JUMP JUMPDEST SWAP3 SWAP2 POP POP JUMP JUMPDEST PUSH2 0x468 DUP2 PUSH2 0x21A JUMP JUMPDEST DUP3 MSTORE POP POP JUMP JUMPDEST PUSH0 PUSH1 0x20 DUP3 ADD SWAP1 POP PUSH2 0x481 PUSH0 DUP4 ADD DUP5 PUSH2 0x45F JUMP JUMPDEST SWAP3 SWAP2 POP POP JUMP JUMPDEST PUSH0 DUP2 ISZERO ISZERO SWAP1 POP SWAP2 SWAP1 POP JUMP JUMPDEST PUSH2 0x49B DUP2 PUSH2 0x487 JUMP JUMPDEST DUP2 EQ PUSH2 0x4A5 JUMPI PUSH0 DUP1 REVERT JUMPDEST POP JUMP JUMPDEST PUSH0 DUP2 MLOAD SWAP1 POP PUSH2 0x4B6 DUP2 PUSH2 0x492 JUMP JUMPDEST SWAP3 SWAP2 POP POP JUMP JUMPDEST PUSH0 PUSH1 0x20 DUP3 DUP5 SUB SLT ISZERO PUSH2 0x4D1 JUMPI PUSH2 0x4D0 PUSH2 0x1F3 JUMP JUMPDEST JUMPDEST PUSH0 PUSH2 0x4DE DUP5 DUP3 DUP6 ADD PUSH2 0x4A8 JUMP JUMPDEST SWAP2 POP POP SWAP3 SWAP2 POP POP JUMP JUMPDEST PUSH0 DUP3 DUP3 MSTORE PUSH1 0x20 DUP3 ADD SWAP1 POP SWAP3 SWAP2 POP POP JUMP JUMPDEST PUSH32 0x73656E646572206973206E6F74206E6F74617279207075626C6963206D656D62 PUSH0 DUP3 ADD MSTORE PUSH32 0x6572000000000000000000000000000000000000000000000000000000000000 PUSH1 0x20 DUP3 ADD MSTORE POP JUMP JUMPDEST PUSH0 PUSH2 0x551 PUSH1 0x22 DUP4 PUSH2 0x4E7 JUMP JUMPDEST SWAP2 POP PUSH2 0x55C DUP3 PUSH2 0x4F7 JUMP JUMPDEST PUSH1 0x40 DUP3 ADD SWAP1 POP SWAP2 SWAP1 POP JUMP JUMPDEST PUSH0 PUSH1 0x20 DUP3 ADD SWAP1 POP DUP2 DUP2 SUB PUSH0 DUP4 ADD MSTORE PUSH2 0x57E DUP2 PUSH2 0x545 JUMP JUMPDEST SWAP1 POP SWAP2 SWAP1 POP JUMP JUMPDEST PUSH0 DUP2 MLOAD SWAP1 POP SWAP2 SWAP1 POP JUMP JUMPDEST PUSH0 DUP2 SWAP1 POP SWAP3 SWAP2 POP POP JUMP JUMPDEST DUP3 DUP2 DUP4 MCOPY PUSH0 DUP4 DUP4 ADD MSTORE POP POP POP JUMP JUMPDEST PUSH0 PUSH2 0x5B1 DUP3 PUSH2 0x585 JUMP JUMPDEST PUSH2 0x5BB DUP2 DUP6 PUSH2 0x58F JUMP JUMPDEST SWAP4 POP PUSH2 0x5CB DUP2 DUP6 PUSH1 0x20 DUP7 ADD PUSH2 0x599 JUMP JUMPDEST DUP1 DUP5 ADD SWAP2 POP POP SWAP3 SWAP2 POP POP JUMP JUMPDEST PUSH0 PUSH2 0x5E2 DUP3 DUP5 PUSH2 0x5A7 JUMP JUMPDEST SWAP2 POP DUP2 SWAP1 POP SWAP3 SWAP2 POP POP JUMP INVALID LOG2 PUSH5 0x6970667358 0x22 SLT KECCAK256 DUP15 SGT 0xC2 0x26 0x4C 0x2C MSTORE8 SWAP2 0xE6 JUMPI 0x22 MSTORE 0xA9 DUP14 0xB8 BASEFEE PUSH0 0xEE SAR 0xE3 0xE2 0xC5 DUP5 0x1F DUP8 MSIZE MSTORE 0x2A 0x29 PUSH23 0x1AD964736F6C6343000819003300000000000000000000 "
				},
				"gasEstimates": {
					"creation": {
						"codeDepositCost": "314200",
						"executionCost": "infinite",
						"totalCost": "infinite"
					},
					"external": {
						"notaryCall(address,bytes)": "infinite",
						"notaryPublic()": "infinite"
					}
				},
				"methodIdentifiers": {
					"notaryCall(address,bytes)": "668a7146",
					"notaryPublic()": "a70ff2ba"
				}
			},
			"storageLayout": {
				"storage": [],
				"types": null
			},
			"userdoc": {
				"kind": "user",
				"methods": {},
				"version": 1
			}
		}
	}
}