{
	"notary/NotaryPublic.sol": {
		"NotaryPublic": {
			"abi": [
				{
					"anonymous": false,
					"inputs": [
						{
							"indexed": false,
							"internalType": "bytes1",
							"name": "prefix",
							"type": "bytes1"
						},
						{
							"indexed": false,
							"internalType": "uint256",
							"name": "appID",
							"type": "uint256"
						},
						{
							"indexed": false,
							"internalType": "bytes",
							"name": "signatrue",
							"type": "bytes"
						},
						{
							"indexed": false,
							"internalType": "address",
							"name": "notary",
							"type": "address"
						}
					],
					"name": "Notarized",
					"type": "event"
				},
				{
					"inputs": [
						{
							"internalType": "bytes1",
							"name": "prefix",
							"type": "bytes1"
						},
						{
							"internalType": "uint256",
							"name": "appID",
							"type": "uint256"
						},
						{
							"internalType": "address",
							"name": "notary",
							"type": "address"
						}
					],
					"name": "getNotarization",
					"outputs": [
						{
							"internalType": "bytes",
							"name": "",
							"type": "bytes"
						},
						{
							"internalType": "bytes",
							"name": "",
							"type": "bytes"
						}
					],
					"stateMutability": "view",
					"type": "function"
				},
				{
					"inputs": [
						{
							"internalType": "address",
							"name": "notary",
							"type": "address"
						}
					],
					"name": "getPubkey",
					"outputs": [
						{
							"internalType": "bytes",
							"name": "",
							"type": "bytes"
						}
					],
					"stateMutability": "view",
					"type": "function"
				},
				{
					"inputs": [
						{
							"internalType": "bytes1",
							"name": "prefix",
							"type": "bytes1"
						},
						{
							"internalType": "uint256",
							"name": "appID",
							"type": "uint256"
						},
						{
							"internalType": "bytes",
							"name": "signatrue",
							"type": "bytes"
						}
					],
					"name": "notarize",
					"outputs": [],
					"stateMutability": "nonpayable",
					"type": "function"
				},
				{
					"inputs": [
						{
							"internalType": "bytes",
							"name": "pubkey",
							"type": "bytes"
						}
					],
					"name": "register",
					"outputs": [],
					"stateMutability": "nonpayable",
					"type": "function"
				}
			],
			"devdoc": {
				"kind": "dev",
				"methods": {},
				"version": 1
			},
			"evm": {
				"assembly": "    /* \"notary/NotaryPublic.sol\":62:1102  contract NotaryPublic {... */\n  mstore(0x40, 0x80)\n  callvalue\n  dup1\n  iszero\n  tag_1\n  jumpi\n  0x00\n  dup1\n  revert\ntag_1:\n  pop\n  dataSize(sub_0)\n  dup1\n  dataOffset(sub_0)\n  0x00\n  codecopy\n  0x00\n  return\nstop\n\nsub_0: assembly {\n        /* \"notary/NotaryPublic.sol\":62:1102  contract NotaryPublic {... */\n      mstore(0x40, 0x80)\n      callvalue\n      dup1\n      iszero\n      tag_1\n      jumpi\n      0x00\n      dup1\n      revert\n    tag_1:\n      pop\n      jumpi(tag_2, lt(calldatasize, 0x04))\n      shr(0xe0, calldataload(0x00))\n      dup1\n      0x0f260ca0\n      eq\n      tag_3\n      jumpi\n      dup1\n      0x7e004409\n      eq\n      tag_4\n      jumpi\n      dup1\n      0x82fbdc9c\n      eq\n      tag_5\n      jumpi\n      dup1\n      0xedac6563\n      eq\n      tag_6\n      jumpi\n    tag_2:\n      0x00\n      dup1\n      revert\n        /* \"notary/NotaryPublic.sol\":756:865  function getPubkey(address notary) public view returns (bytes memory) {... */\n    tag_3:\n      tag_7\n      0x04\n      dup1\n      calldatasize\n      sub\n      dup2\n      add\n      swap1\n      tag_8\n      swap2\n      swap1\n      tag_9\n      jump\t// in\n    tag_8:\n      tag_10\n      jump\t// in\n    tag_7:\n      mload(0x40)\n      tag_11\n      swap2\n      swap1\n      tag_12\n      jump\t// in\n    tag_11:\n      mload(0x40)\n      dup1\n      swap2\n      sub\n      swap1\n      return\n        /* \"notary/NotaryPublic.sol\":408:651  function notarize(... */\n    tag_4:\n      tag_13\n      0x04\n      dup1\n      calldatasize\n      sub\n      dup2\n      add\n      swap1\n      tag_14\n      swap2\n      swap1\n      tag_15\n      jump\t// in\n    tag_14:\n      tag_16\n      jump\t// in\n    tag_13:\n      stop\n        /* \"notary/NotaryPublic.sol\":657:750  function register(bytes memory pubkey) external {... */\n    tag_5:\n      tag_17\n      0x04\n      dup1\n      calldatasize\n      sub\n      dup2\n      add\n      swap1\n      tag_18\n      swap2\n      swap1\n      tag_19\n      jump\t// in\n    tag_18:\n      tag_20\n      jump\t// in\n    tag_17:\n      stop\n        /* \"notary/NotaryPublic.sol\":871:1100  function getNotarization(... */\n    tag_6:\n      tag_21\n      0x04\n      dup1\n      calldatasize\n      sub\n      dup2\n      add\n      swap1\n      tag_22\n      swap2\n      swap1\n      tag_23\n      jump\t// in\n    tag_22:\n      tag_24\n      jump\t// in\n    tag_21:\n      mload(0x40)\n      tag_25\n      swap3\n      swap2\n      swap1\n      tag_26\n      jump\t// in\n    tag_25:\n      mload(0x40)\n      dup1\n      swap2\n      sub\n      swap1\n      return\n        /* \"notary/NotaryPublic.sol\":756:865  function getPubkey(address notary) public view returns (bytes memory) {... */\n    tag_10:\n        /* \"notary/NotaryPublic.sol\":812:824  bytes memory */\n      0x60\n        /* \"notary/NotaryPublic.sol\":843:850  pubkeys */\n      0x01\n        /* \"notary/NotaryPublic.sol\":843:858  pubkeys[notary] */\n      0x00\n        /* \"notary/NotaryPublic.sol\":851:857  notary */\n      dup4\n        /* \"notary/NotaryPublic.sol\":843:858  pubkeys[notary] */\n      0xffffffffffffffffffffffffffffffffffffffff\n      and\n      0xffffffffffffffffffffffffffffffffffffffff\n      and\n      dup2\n      mstore\n      0x20\n      add\n      swap1\n      dup2\n      mstore\n      0x20\n      add\n      0x00\n      keccak256\n        /* \"notary/NotaryPublic.sol\":836:858  return pubkeys[notary] */\n      dup1\n      sload\n      tag_28\n      swap1\n      tag_29\n      jump\t// in\n    tag_28:\n      dup1\n      0x1f\n      add\n      0x20\n      dup1\n      swap2\n      div\n      mul\n      0x20\n      add\n      mload(0x40)\n      swap1\n      dup2\n      add\n      0x40\n      mstore\n      dup1\n      swap3\n      swap2\n      swap1\n      dup2\n      dup2\n      mstore\n      0x20\n      add\n      dup3\n      dup1\n      sload\n      tag_30\n      swap1\n      tag_29\n      jump\t// in\n    tag_30:\n      dup1\n      iszero\n      tag_31\n      jumpi\n      dup1\n      0x1f\n      lt\n      tag_32\n      jumpi\n      0x0100\n      dup1\n      dup4\n      sload\n      div\n      mul\n      dup4\n      mstore\n      swap2\n      0x20\n      add\n      swap2\n      jump(tag_31)\n    tag_32:\n      dup3\n      add\n      swap2\n      swap1\n      0x00\n      mstore\n      keccak256(0x00, 0x20)\n      swap1\n    tag_33:\n      dup2\n      sload\n      dup2\n      mstore\n      swap1\n      0x01\n      add\n      swap1\n      0x20\n      add\n      dup1\n      dup4\n      gt\n      tag_33\n      jumpi\n      dup3\n      swap1\n      sub\n      0x1f\n      and\n      dup3\n      add\n      swap2\n    tag_31:\n      pop\n      pop\n      pop\n      pop\n      pop\n      swap1\n      pop\n        /* \"notary/NotaryPublic.sol\":756:865  function getPubkey(address notary) public view returns (bytes memory) {... */\n      swap2\n      swap1\n      pop\n      jump\t// out\n        /* \"notary/NotaryPublic.sol\":408:651  function notarize(... */\n    tag_16:\n        /* \"notary/NotaryPublic.sol\":572:581  signatrue */\n      dup1\n        /* \"notary/NotaryPublic.sol\":529:542  notarizations */\n      0x00\n        /* \"notary/NotaryPublic.sol\":529:550  notarizations[prefix] */\n      dup1\n        /* \"notary/NotaryPublic.sol\":543:549  prefix */\n      dup6\n        /* \"notary/NotaryPublic.sol\":529:550  notarizations[prefix] */\n      not(0xffffffffffffffffffffffffffffffffffffffffffffffffffffffffffffff)\n      and\n      not(0xffffffffffffffffffffffffffffffffffffffffffffffffffffffffffffff)\n      and\n      dup2\n      mstore\n      0x20\n      add\n      swap1\n      dup2\n      mstore\n      0x20\n      add\n      0x00\n      keccak256\n        /* \"notary/NotaryPublic.sol\":529:557  notarizations[prefix][appID] */\n      0x00\n        /* \"notary/NotaryPublic.sol\":551:556  appID */\n      dup5\n        /* \"notary/NotaryPublic.sol\":529:557  notarizations[prefix][appID] */\n      dup2\n      mstore\n      0x20\n      add\n      swap1\n      dup2\n      mstore\n      0x20\n      add\n      0x00\n      keccak256\n        /* \"notary/NotaryPublic.sol\":529:569  notarizations[prefix][appID][msg.sender] */\n      0x00\n        /* \"notary/NotaryPublic.sol\":558:568  msg.sender */\n      caller\n        /* \"notary/NotaryPublic.sol\":529:569  notarizations[prefix][appID][msg.sender] */\n      0xffffffffffffffffffffffffffffffffffffffff\n      and\n      0xffffffffffffffffffffffffffffffffffffffff\n      and\n      dup2\n      mstore\n      0x20\n      add\n      swap1\n      dup2\n      mstore\n      0x20\n      add\n      0x00\n      keccak256\n        /* \"notary/NotaryPublic.sol\":529:581  notarizations[prefix][appID][msg.sender] = signatrue */\n      swap1\n      dup2\n      tag_35\n      swap2\n      swap1\n      tag_36\n      jump\t// in\n    tag_35:\n      pop\n        /* \"notary/NotaryPublic.sol\":597:644  Notarized(prefix, appID, signatrue, msg.sender) */\n      0x05e59c60c32fb6565e9a30277c830760329a8da45b5eb3b0b995f70fb3c9682e\n        /* \"notary/NotaryPublic.sol\":607:613  prefix */\n      dup4\n        /* \"notary/NotaryPublic.sol\":615:620  appID */\n      dup4\n        /* \"notary/NotaryPublic.sol\":622:631  signatrue */\n      dup4\n        /* \"notary/NotaryPublic.sol\":633:643  msg.sender */\n      caller\n        /* \"notary/NotaryPublic.sol\":597:644  Notarized(prefix, appID, signatrue, msg.sender) */\n      mload(0x40)\n      tag_37\n      swap5\n      swap4\n      swap3\n      swap2\n      swap1\n      tag_38\n      jump\t// in\n    tag_37:\n      mload(0x40)\n      dup1\n      swap2\n      sub\n      swap1\n      log1\n        /* \"notary/NotaryPublic.sol\":408:651  function notarize(... */\n      pop\n      pop\n      pop\n      jump\t// out\n        /* \"notary/NotaryPublic.sol\":657:750  function register(bytes memory pubkey) external {... */\n    tag_20:\n        /* \"notary/NotaryPublic.sol\":737:743  pubkey */\n      dup1\n        /* \"notary/NotaryPublic.sol\":715:722  pubkeys */\n      0x01\n        /* \"notary/NotaryPublic.sol\":715:734  pubkeys[msg.sender] */\n      0x00\n        /* \"notary/NotaryPublic.sol\":723:733  msg.sender */\n      caller\n        /* \"notary/NotaryPublic.sol\":715:734  pubkeys[msg.sender] */\n      0xffffffffffffffffffffffffffffffffffffffff\n      and\n      0xffffffffffffffffffffffffffffffffffffffff\n      and\n      dup2\n      mstore\n      0x20\n      add\n      swap1\n      dup2\n      mstore\n      0x20\n      add\n      0x00\n      keccak256\n        /* \"notary/NotaryPublic.sol\":715:743  pubkeys[msg.sender] = pubkey */\n      swap1\n      dup2\n      tag_40\n      swap2\n      swap1\n      tag_36\n      jump\t// in\n    tag_40:\n      pop\n        /* \"notary/NotaryPublic.sol\":657:750  function register(bytes memory pubkey) external {... */\n      pop\n      jump\t// out\n        /* \"notary/NotaryPublic.sol\":871:1100  function getNotarization(... */\n    tag_24:\n        /* \"notary/NotaryPublic.sol\":993:1005  bytes memory */\n      0x60\n        /* \"notary/NotaryPublic.sol\":1007:1019  bytes memory */\n      dup1\n        /* \"notary/NotaryPublic.sol\":1039:1046  pubkeys */\n      0x01\n        /* \"notary/NotaryPublic.sol\":1039:1054  pubkeys[notary] */\n      0x00\n        /* \"notary/NotaryPublic.sol\":1047:1053  notary */\n      dup5\n        /* \"notary/NotaryPublic.sol\":1039:1054  pubkeys[notary] */\n      0xffffffffffffffffffffffffffffffffffffffff\n      and\n      0xffffffffffffffffffffffffffffffffffffffff\n      and\n      dup2\n      mstore\n      0x20\n      add\n      swap1\n      dup2\n      mstore\n      0x20\n      add\n      0x00\n      keccak256\n        /* \"notary/NotaryPublic.sol\":1056:1069  notarizations */\n      0x00\n        /* \"notary/NotaryPublic.sol\":1056:1077  notarizations[prefix] */\n      dup1\n        /* \"notary/NotaryPublic.sol\":1070:1076  prefix */\n      dup8\n        /* \"notary/NotaryPublic.sol\":1056:1077  notarizations[prefix] */\n      not(0xffffffffffffffffffffffffffffffffffffffffffffffffffffffffffffff)\n      and\n      not(0xffffffffffffffffffffffffffffffffffffffffffffffffffffffffffffff)\n      and\n      dup2\n      mstore\n      0x20\n      add\n      swap1\n      dup2\n      mstore\n      0x20\n      add\n      0x00\n      keccak256\n        /* \"notary/NotaryPublic.sol\":1056:1084  notarizations[prefix][appID] */\n      0x00\n        /* \"notary/NotaryPublic.sol\":1078:1083  appID */\n      dup7\n        /* \"notary/NotaryPublic.sol\":1056:1084  notarizations[prefix][appID] */\n      dup2\n      mstore\n      0x20\n      add\n      swap1\n      dup2\n      mstore\n      0x20\n      add\n      0x00\n      keccak256\n        /* \"notary/NotaryPublic.sol\":1056:1092  notarizations[prefix][appID][notary] */\n      0x00\n        /* \"notary/NotaryPublic.sol\":1085:1091  notary */\n      dup6\n        /* \"notary/NotaryPublic.sol\":1056:1092  notarizations[prefix][appID][notary] */\n      0xffffffffffffffffffffffffffffffffffffffff\n      and\n      0xffffffffffffffffffffffffffffffffffffffff\n      and\n      dup2\n      mstore\n      0x20\n      add\n      swap1\n      dup2\n      mstore\n      0x20\n      add\n      0x00\n      keccak256\n        /* \"notary/NotaryPublic.sol\":1031:1093  return (pubkeys[notary], notarizations[prefix][appID][notary]) */\n      dup2\n      dup1\n      sload\n      tag_42\n      swap1\n      tag_29\n      jump\t// in\n    tag_42:\n      dup1\n      0x1f\n      add\n      0x20\n      dup1\n      swap2\n      div\n      mul\n      0x20\n      add\n      mload(0x40)\n      swap1\n      dup2\n      add\n      0x40\n      mstore\n      dup1\n      swap3\n      swap2\n      swap1\n      dup2\n      dup2\n      mstore\n      0x20\n      add\n      dup3\n      dup1\n      sload\n      tag_43\n      swap1\n      tag_29\n      jump\t// in\n    tag_43:\n      dup1\n      iszero\n      tag_44\n      jumpi\n      dup1\n      0x1f\n      lt\n      tag_45\n      jumpi\n      0x0100\n      dup1\n      dup4\n      sload\n      div\n      mul\n      dup4\n      mstore\n      swap2\n      0x20\n      add\n      swap2\n      jump(tag_44)\n    tag_45:\n      dup3\n      add\n      swap2\n      swap1\n      0x00\n      mstore\n      keccak256(0x00, 0x20)\n      swap1\n    tag_46:\n      dup2\n      sload\n      dup2\n      mstore\n      swap1\n      0x01\n      add\n      swap1\n      0x20\n      add\n      dup1\n      dup4\n      gt\n      tag_46\n      jumpi\n      dup3\n      swap1\n      sub\n      0x1f\n      and\n      dup3\n      add\n      swap2\n    tag_44:\n      pop\n      pop\n      pop\n      pop\n      pop\n      swap2\n      pop\n      dup1\n      dup1\n      sload\n      tag_47\n      swap1\n      tag_29\n      jump\t// in\n    tag_47:\n      dup1\n      0x1f\n      add\n      0x20\n      dup1\n      swap2\n      div\n      mul\n      0x20\n      add\n      mload(0x40)\n      swap1\n      dup2\n      add\n      0x40\n      mstore\n      dup1\n      swap3\n      swap2\n      swap1\n      dup2\n      dup2\n      mstore\n      0x20\n      add\n      dup3\n      dup1\n      sload\n      tag_48\n      swap1\n      tag_29\n      jump\t// in\n    tag_48:\n      dup1\n      iszero\n      tag_49\n      jumpi\n      dup1\n      0x1f\n      lt\n      tag_50\n      jumpi\n      0x0100\n      dup1\n      dup4\n      sload\n      div\n      mul\n      dup4\n      mstore\n      swap2\n      0x20\n      add\n      swap2\n      jump(tag_49)\n    tag_50:\n      dup3\n      add\n      swap2\n      swap1\n      0x00\n      mstore\n      keccak256(0x00, 0x20)\n      swap1\n    tag_51:\n      dup2\n      sload\n      dup2\n      mstore\n      swap1\n      0x01\n      add\n      swap1\n      0x20\n      add\n      dup1\n      dup4\n      gt\n      tag_51\n      jumpi\n      dup3\n      swap1\n      sub\n      0x1f\n      and\n      dup3\n      add\n      swap2\n    tag_49:\n      pop\n      pop\n      pop\n      pop\n      pop\n      swap1\n      pop\n      swap2\n      pop\n      swap2\n      pop\n        /* \"notary/NotaryPublic.sol\":871:1100  function getNotarization(... */\n      swap4\n      pop\n      swap4\n      swap2\n      pop\n      pop\n      jump\t// out\n        /* \"#utility.yul\":7:82   */\n    tag_52:\n        /* \"#utility.yul\":40:46   */\n      0x00\n        /* \"#utility.yul\":73:75   */\n      0x40\n        /* \"#utility.yul\":67:76   */\n      mload\n        /* \"#utility.yul\":57:76   */\n      swap1\n      pop\n        /* \"#utility.yul\":7:82   */\n      swap1\n      jump\t// out\n        /* \"#utility.yul\":88:205   */\n    tag_53:\n        /* \"#utility.yul\":197:198   */\n      0x00\n        /* \"#utility.yul\":194:195   */\n      dup1\n        /* \"#utility.yul\":187:199   */\n      revert\n        /* \"#utility.yul\":211:328   */\n    tag_54:\n        /* \"#utility.yul\":320:321   */\n      0x00\n        /* \"#utility.yul\":317:318   */\n      dup1\n        /* \"#utility.yul\":310:322   */\n      revert\n        /* \"#utility.yul\":334:460   */\n    tag_55:\n        /* \"#utility.yul\":371:378   */\n      0x00\n        /* \"#utility.yul\":411:453   */\n      0xffffffffffffffffffffffffffffffffffffffff\n        /* \"#utility.yul\":404:409   */\n      dup3\n        /* \"#utility.yul\":400:454   */\n      and\n        /* \"#utility.yul\":389:454   */\n      swap1\n      pop\n        /* \"#utility.yul\":334:460   */\n      swap2\n      swap1\n      pop\n      jump\t// out\n        /* \"#utility.yul\":466:562   */\n    tag_56:\n        /* \"#utility.yul\":503:510   */\n      0x00\n        /* \"#utility.yul\":532:556   */\n      tag_104\n        /* \"#utility.yul\":550:555   */\n      dup3\n        /* \"#utility.yul\":532:556   */\n      tag_55\n      jump\t// in\n    tag_104:\n        /* \"#utility.yul\":521:556   */\n      swap1\n      pop\n        /* \"#utility.yul\":466:562   */\n      swap2\n      swap1\n      pop\n      jump\t// out\n        /* \"#utility.yul\":568:690   */\n    tag_57:\n        /* \"#utility.yul\":641:665   */\n      tag_106\n        /* \"#utility.yul\":659:664   */\n      dup2\n        /* \"#utility.yul\":641:665   */\n      tag_56\n      jump\t// in\n    tag_106:\n        /* \"#utility.yul\":634:639   */\n      dup2\n        /* \"#utility.yul\":631:666   */\n      eq\n        /* \"#utility.yul\":621:684   */\n      tag_107\n      jumpi\n        /* \"#utility.yul\":680:681   */\n      0x00\n        /* \"#utility.yul\":677:678   */\n      dup1\n        /* \"#utility.yul\":670:682   */\n      revert\n        /* \"#utility.yul\":621:684   */\n    tag_107:\n        /* \"#utility.yul\":568:690   */\n      pop\n      jump\t// out\n        /* \"#utility.yul\":696:835   */\n    tag_58:\n        /* \"#utility.yul\":742:747   */\n      0x00\n        /* \"#utility.yul\":780:786   */\n      dup2\n        /* \"#utility.yul\":767:787   */\n      calldataload\n        /* \"#utility.yul\":758:787   */\n      swap1\n      pop\n        /* \"#utility.yul\":796:829   */\n      tag_109\n        /* \"#utility.yul\":823:828   */\n      dup2\n        /* \"#utility.yul\":796:829   */\n      tag_57\n      jump\t// in\n    tag_109:\n        /* \"#utility.yul\":696:835   */\n      swap3\n      swap2\n      pop\n      pop\n      jump\t// out\n        /* \"#utility.yul\":841:1170   */\n    tag_9:\n        /* \"#utility.yul\":900:906   */\n      0x00\n        /* \"#utility.yul\":949:951   */\n      0x20\n        /* \"#utility.yul\":937:946   */\n      dup3\n        /* \"#utility.yul\":928:935   */\n      dup5\n        /* \"#utility.yul\":924:947   */\n      sub\n        /* \"#utility.yul\":920:952   */\n      slt\n        /* \"#utility.yul\":917:1036   */\n      iszero\n      tag_111\n      jumpi\n        /* \"#utility.yul\":955:1034   */\n      tag_112\n      tag_53\n      jump\t// in\n    tag_112:\n        /* \"#utility.yul\":917:1036   */\n    tag_111:\n        /* \"#utility.yul\":1075:1076   */\n      0x00\n        /* \"#utility.yul\":1100:1153   */\n      tag_113\n        /* \"#utility.yul\":1145:1152   */\n      dup5\n        /* \"#utility.yul\":1136:1142   */\n      dup3\n        /* \"#utility.yul\":1125:1134   */\n      dup6\n        /* \"#utility.yul\":1121:1143   */\n      add\n        /* \"#utility.yul\":1100:1153   */\n      tag_58\n      jump\t// in\n    tag_113:\n        /* \"#utility.yul\":1090:1153   */\n      swap2\n      pop\n        /* \"#utility.yul\":1046:1163   */\n      pop\n        /* \"#utility.yul\":841:1170   */\n      swap3\n      swap2\n      pop\n      pop\n      jump\t// out\n        /* \"#utility.yul\":1176:1274   */\n    tag_59:\n        /* \"#utility.yul\":1227:1233   */\n      0x00\n        /* \"#utility.yul\":1261:1266   */\n      dup2\n        /* \"#utility.yul\":1255:1267   */\n      mload\n        /* \"#utility.yul\":1245:1267   */\n      swap1\n      pop\n        /* \"#utility.yul\":1176:1274   */\n      swap2\n      swap1\n      pop\n      jump\t// out\n        /* \"#utility.yul\":1280:1448   */\n    tag_60:\n        /* \"#utility.yul\":1363:1374   */\n      0x00\n        /* \"#utility.yul\":1397:1403   */\n      dup3\n        /* \"#utility.yul\":1392:1395   */\n      dup3\n        /* \"#utility.yul\":1385:1404   */\n      mstore\n        /* \"#utility.yul\":1437:1441   */\n      0x20\n        /* \"#utility.yul\":1432:1435   */\n      dup3\n        /* \"#utility.yul\":1428:1442   */\n      add\n        /* \"#utility.yul\":1413:1442   */\n      swap1\n      pop\n        /* \"#utility.yul\":1280:1448   */\n      swap3\n      swap2\n      pop\n      pop\n      jump\t// out\n        /* \"#utility.yul\":1454:1700   */\n    tag_61:\n        /* \"#utility.yul\":1535:1536   */\n      0x00\n        /* \"#utility.yul\":1545:1658   */\n    tag_117:\n        /* \"#utility.yul\":1559:1565   */\n      dup4\n        /* \"#utility.yul\":1556:1557   */\n      dup2\n        /* \"#utility.yul\":1553:1566   */\n      lt\n        /* \"#utility.yul\":1545:1658   */\n      iszero\n      tag_119\n      jumpi\n        /* \"#utility.yul\":1644:1645   */\n      dup1\n        /* \"#utility.yul\":1639:1642   */\n      dup3\n        /* \"#utility.yul\":1635:1646   */\n      add\n        /* \"#utility.yul\":1629:1647   */\n      mload\n        /* \"#utility.yul\":1625:1626   */\n      dup2\n        /* \"#utility.yul\":1620:1623   */\n      dup5\n        /* \"#utility.yul\":1616:1627   */\n      add\n        /* \"#utility.yul\":1609:1648   */\n      mstore\n        /* \"#utility.yul\":1581:1583   */\n      0x20\n        /* \"#utility.yul\":1578:1579   */\n      dup2\n        /* \"#utility.yul\":1574:1584   */\n      add\n        /* \"#utility.yul\":1569:1584   */\n      swap1\n      pop\n        /* \"#utility.yul\":1545:1658   */\n      jump(tag_117)\n    tag_119:\n        /* \"#utility.yul\":1692:1693   */\n      0x00\n        /* \"#utility.yul\":1683:1689   */\n      dup5\n        /* \"#utility.yul\":1678:1681   */\n      dup5\n        /* \"#utility.yul\":1674:1690   */\n      add\n        /* \"#utility.yul\":1667:1694   */\n      mstore\n        /* \"#utility.yul\":1516:1700   */\n      pop\n        /* \"#utility.yul\":1454:1700   */\n      pop\n      pop\n      pop\n      jump\t// out\n        /* \"#utility.yul\":1706:1808   */\n    tag_62:\n        /* \"#utility.yul\":1747:1753   */\n      0x00\n        /* \"#utility.yul\":1798:1800   */\n      0x1f\n        /* \"#utility.yul\":1794:1801   */\n      not\n        /* \"#utility.yul\":1789:1791   */\n      0x1f\n        /* \"#utility.yul\":1782:1787   */\n      dup4\n        /* \"#utility.yul\":1778:1792   */\n      add\n        /* \"#utility.yul\":1774:1802   */\n      and\n        /* \"#utility.yul\":1764:1802   */\n      swap1\n      pop\n        /* \"#utility.yul\":1706:1808   */\n      swap2\n      swap1\n      pop\n      jump\t// out\n        /* \"#utility.yul\":1814:2187   */\n    tag_63:\n        /* \"#utility.yul\":1900:1903   */\n      0x00\n        /* \"#utility.yul\":1928:1966   */\n      tag_122\n        /* \"#utility.yul\":1960:1965   */\n      dup3\n        /* \"#utility.yul\":1928:1966   */\n      tag_59\n      jump\t// in\n    tag_122:\n        /* \"#utility.yul\":1982:2052   */\n      tag_123\n        /* \"#utility.yul\":2045:2051   */\n      dup2\n        /* \"#utility.yul\":2040:2043   */\n      dup6\n        /* \"#utility.yul\":1982:2052   */\n      tag_60\n      jump\t// in\n    tag_123:\n        /* \"#utility.yul\":1975:2052   */\n      swap4\n      pop\n        /* \"#utility.yul\":2061:2126   */\n      tag_124\n        /* \"#utility.yul\":2119:2125   */\n      dup2\n        /* \"#utility.yul\":2114:2117   */\n      dup6\n        /* \"#utility.yul\":2107:2111   */\n      0x20\n        /* \"#utility.yul\":2100:2105   */\n      dup7\n        /* \"#utility.yul\":2096:2112   */\n      add\n        /* \"#utility.yul\":2061:2126   */\n      tag_61\n      jump\t// in\n    tag_124:\n        /* \"#utility.yul\":2151:2180   */\n      tag_125\n        /* \"#utility.yul\":2173:2179   */\n      dup2\n        /* \"#utility.yul\":2151:2180   */\n      tag_62\n      jump\t// in\n    tag_125:\n        /* \"#utility.yul\":2146:2149   */\n      dup5\n        /* \"#utility.yul\":2142:2181   */\n      add\n        /* \"#utility.yul\":2135:2181   */\n      swap2\n      pop\n        /* \"#utility.yul\":1904:2187   */\n      pop\n        /* \"#utility.yul\":1814:2187   */\n      swap3\n      swap2\n      pop\n      pop\n      jump\t// out\n        /* \"#utility.yul\":2193:2502   */\n    tag_12:\n        /* \"#utility.yul\":2304:2308   */\n      0x00\n        /* \"#utility.yul\":2342:2344   */\n      0x20\n        /* \"#utility.yul\":2331:2340   */\n      dup3\n        /* \"#utility.yul\":2327:2345   */\n      add\n        /* \"#utility.yul\":2319:2345   */\n      swap1\n      pop\n        /* \"#utility.yul\":2391:2400   */\n      dup2\n        /* \"#utility.yul\":2385:2389   */\n      dup2\n        /* \"#utility.yul\":2381:2401   */\n      sub\n        /* \"#utility.yul\":2377:2378   */\n      0x00\n        /* \"#utility.yul\":2366:2375   */\n      dup4\n        /* \"#utility.yul\":2362:2379   */\n      add\n        /* \"#utility.yul\":2355:2402   */\n      mstore\n        /* \"#utility.yul\":2419:2495   */\n      tag_127\n        /* \"#utility.yul\":2490:2494   */\n      dup2\n        /* \"#utility.yul\":2481:2487   */\n      dup5\n        /* \"#utility.yul\":2419:2495   */\n      tag_63\n      jump\t// in\n    tag_127:\n        /* \"#utility.yul\":2411:2495   */\n      swap1\n      pop\n        /* \"#utility.yul\":2193:2502   */\n      swap3\n      swap2\n      pop\n      pop\n      jump\t// out\n        /* \"#utility.yul\":2508:2657   */\n    tag_64:\n        /* \"#utility.yul\":2544:2551   */\n      0x00\n        /* \"#utility.yul\":2584:2650   */\n      0xff00000000000000000000000000000000000000000000000000000000000000\n        /* \"#utility.yul\":2577:2582   */\n      dup3\n        /* \"#utility.yul\":2573:2651   */\n      and\n        /* \"#utility.yul\":2562:2651   */\n      swap1\n      pop\n        /* \"#utility.yul\":2508:2657   */\n      swap2\n      swap1\n      pop\n      jump\t// out\n        /* \"#utility.yul\":2663:2783   */\n    tag_65:\n        /* \"#utility.yul\":2735:2758   */\n      tag_130\n        /* \"#utility.yul\":2752:2757   */\n      dup2\n        /* \"#utility.yul\":2735:2758   */\n      tag_64\n      jump\t// in\n    tag_130:\n        /* \"#utility.yul\":2728:2733   */\n      dup2\n        /* \"#utility.yul\":2725:2759   */\n      eq\n        /* \"#utility.yul\":2715:2777   */\n      tag_131\n      jumpi\n        /* \"#utility.yul\":2773:2774   */\n      0x00\n        /* \"#utility.yul\":2770:2771   */\n      dup1\n        /* \"#utility.yul\":2763:2775   */\n      revert\n        /* \"#utility.yul\":2715:2777   */\n    tag_131:\n        /* \"#utility.yul\":2663:2783   */\n      pop\n      jump\t// out\n        /* \"#utility.yul\":2789:2926   */\n    tag_66:\n        /* \"#utility.yul\":2834:2839   */\n      0x00\n        /* \"#utility.yul\":2872:2878   */\n      dup2\n        /* \"#utility.yul\":2859:2879   */\n      calldataload\n        /* \"#utility.yul\":2850:2879   */\n      swap1\n      pop\n        /* \"#utility.yul\":2888:2920   */\n      tag_133\n        /* \"#utility.yul\":2914:2919   */\n      dup2\n        /* \"#utility.yul\":2888:2920   */\n      tag_65\n      jump\t// in\n    tag_133:\n        /* \"#utility.yul\":2789:2926   */\n      swap3\n      swap2\n      pop\n      pop\n      jump\t// out\n        /* \"#utility.yul\":2932:3009   */\n    tag_67:\n        /* \"#utility.yul\":2969:2976   */\n      0x00\n        /* \"#utility.yul\":2998:3003   */\n      dup2\n        /* \"#utility.yul\":2987:3003   */\n      swap1\n      pop\n        /* \"#utility.yul\":2932:3009   */\n      swap2\n      swap1\n      pop\n      jump\t// out\n        /* \"#utility.yul\":3015:3137   */\n    tag_68:\n        /* \"#utility.yul\":3088:3112   */\n      tag_136\n        /* \"#utility.yul\":3106:3111   */\n      dup2\n        /* \"#utility.yul\":3088:3112   */\n      tag_67\n      jump\t// in\n    tag_136:\n        /* \"#utility.yul\":3081:3086   */\n      dup2\n        /* \"#utility.yul\":3078:3113   */\n      eq\n        /* \"#utility.yul\":3068:3131   */\n      tag_137\n      jumpi\n        /* \"#utility.yul\":3127:3128   */\n      0x00\n        /* \"#utility.yul\":3124:3125   */\n      dup1\n        /* \"#utility.yul\":3117:3129   */\n      revert\n        /* \"#utility.yul\":3068:3131   */\n    tag_137:\n        /* \"#utility.yul\":3015:3137   */\n      pop\n      jump\t// out\n        /* \"#utility.yul\":3143:3282   */\n    tag_69:\n        /* \"#utility.yul\":3189:3194   */\n      0x00\n        /* \"#utility.yul\":3227:3233   */\n      dup2\n        /* \"#utility.yul\":3214:3234   */\n      calldataload\n        /* \"#utility.yul\":3205:3234   */\n      swap1\n      pop\n        /* \"#utility.yul\":3243:3276   */\n      tag_139\n        /* \"#utility.yul\":3270:3275   */\n      dup2\n        /* \"#utility.yul\":3243:3276   */\n      tag_68\n      jump\t// in\n    tag_139:\n        /* \"#utility.yul\":3143:3282   */\n      swap3\n      swap2\n      pop\n      pop\n      jump\t// out\n        /* \"#utility.yul\":3288:3405   */\n    tag_70:\n        /* \"#utility.yul\":3397:3398   */\n      0x00\n        /* \"#utility.yul\":3394:3395   */\n      dup1\n        /* \"#utility.yul\":3387:3399   */\n      revert\n        /* \"#utility.yul\":3411:3528   */\n    tag_71:\n        /* \"#utility.yul\":3520:3521   */\n      0x00\n        /* \"#utility.yul\":3517:3518   */\n      dup1\n        /* \"#utility.yul\":3510:3522   */\n      revert\n        /* \"#utility.yul\":3534:3714   */\n    tag_72:\n        /* \"#utility.yul\":3582:3659   */\n      0x4e487b7100000000000000000000000000000000000000000000000000000000\n        /* \"#utility.yul\":3579:3580   */\n      0x00\n        /* \"#utility.yul\":3572:3660   */\n      mstore\n        /* \"#utility.yul\":3679:3683   */\n      0x41\n        /* \"#utility.yul\":3676:3677   */\n      0x04\n        /* \"#utility.yul\":3669:3684   */\n      mstore\n        /* \"#utility.yul\":3703:3707   */\n      0x24\n        /* \"#utility.yul\":3700:3701   */\n      0x00\n        /* \"#utility.yul\":3693:3708   */\n      revert\n        /* \"#utility.yul\":3720:4001   */\n    tag_73:\n        /* \"#utility.yul\":3803:3830   */\n      tag_144\n        /* \"#utility.yul\":3825:3829   */\n      dup3\n        /* \"#utility.yul\":3803:3830   */\n      tag_62\n      jump\t// in\n    tag_144:\n        /* \"#utility.yul\":3795:3801   */\n      dup2\n        /* \"#utility.yul\":3791:3831   */\n      add\n        /* \"#utility.yul\":3933:3939   */\n      dup2\n        /* \"#utility.yul\":3921:3931   */\n      dup2\n        /* \"#utility.yul\":3918:3940   */\n      lt\n        /* \"#utility.yul\":3897:3915   */\n      0xffffffffffffffff\n        /* \"#utility.yul\":3885:3895   */\n      dup3\n        /* \"#utility.yul\":3882:3916   */\n      gt\n        /* \"#utility.yul\":3879:3941   */\n      or\n        /* \"#utility.yul\":3876:3964   */\n      iszero\n      tag_145\n      jumpi\n        /* \"#utility.yul\":3944:3962   */\n      tag_146\n      tag_72\n      jump\t// in\n    tag_146:\n        /* \"#utility.yul\":3876:3964   */\n    tag_145:\n        /* \"#utility.yul\":3984:3994   */\n      dup1\n        /* \"#utility.yul\":3980:3982   */\n      0x40\n        /* \"#utility.yul\":3973:3995   */\n      mstore\n        /* \"#utility.yul\":3763:4001   */\n      pop\n        /* \"#utility.yul\":3720:4001   */\n      pop\n      pop\n      jump\t// out\n        /* \"#utility.yul\":4007:4136   */\n    tag_74:\n        /* \"#utility.yul\":4041:4047   */\n      0x00\n        /* \"#utility.yul\":4068:4088   */\n      tag_148\n      tag_52\n      jump\t// in\n    tag_148:\n        /* \"#utility.yul\":4058:4088   */\n      swap1\n      pop\n        /* \"#utility.yul\":4097:4130   */\n      tag_149\n        /* \"#utility.yul\":4125:4129   */\n      dup3\n        /* \"#utility.yul\":4117:4123   */\n      dup3\n        /* \"#utility.yul\":4097:4130   */\n      tag_73\n      jump\t// in\n    tag_149:\n        /* \"#utility.yul\":4007:4136   */\n      swap2\n      swap1\n      pop\n      jump\t// out\n        /* \"#utility.yul\":4142:4449   */\n    tag_75:\n        /* \"#utility.yul\":4203:4207   */\n      0x00\n        /* \"#utility.yul\":4293:4311   */\n      0xffffffffffffffff\n        /* \"#utility.yul\":4285:4291   */\n      dup3\n        /* \"#utility.yul\":4282:4312   */\n      gt\n        /* \"#utility.yul\":4279:4335   */\n      iszero\n      tag_151\n      jumpi\n        /* \"#utility.yul\":4315:4333   */\n      tag_152\n      tag_72\n      jump\t// in\n    tag_152:\n        /* \"#utility.yul\":4279:4335   */\n    tag_151:\n        /* \"#utility.yul\":4353:4382   */\n      tag_153\n        /* \"#utility.yul\":4375:4381   */\n      dup3\n        /* \"#utility.yul\":4353:4382   */\n      tag_62\n      jump\t// in\n    tag_153:\n        /* \"#utility.yul\":4345:4382   */\n      swap1\n      pop\n        /* \"#utility.yul\":4437:4441   */\n      0x20\n        /* \"#utility.yul\":4431:4435   */\n      dup2\n        /* \"#utility.yul\":4427:4442   */\n      add\n        /* \"#utility.yul\":4419:4442   */\n      swap1\n      pop\n        /* \"#utility.yul\":4142:4449   */\n      swap2\n      swap1\n      pop\n      jump\t// out\n        /* \"#utility.yul\":4455:4601   */\n    tag_76:\n        /* \"#utility.yul\":4552:4558   */\n      dup3\n        /* \"#utility.yul\":4547:4550   */\n      dup2\n        /* \"#utility.yul\":4542:4545   */\n      dup4\n        /* \"#utility.yul\":4529:4559   */\n      calldatacopy\n        /* \"#utility.yul\":4593:4594   */\n      0x00\n        /* \"#utility.yul\":4584:4590   */\n      dup4\n        /* \"#utility.yul\":4579:4582   */\n      dup4\n        /* \"#utility.yul\":4575:4591   */\n      add\n        /* \"#utility.yul\":4568:4595   */\n      mstore\n        /* \"#utility.yul\":4455:4601   */\n      pop\n      pop\n      pop\n      jump\t// out\n        /* \"#utility.yul\":4607:5030   */\n    tag_77:\n        /* \"#utility.yul\":4684:4689   */\n      0x00\n        /* \"#utility.yul\":4709:4774   */\n      tag_156\n        /* \"#utility.yul\":4725:4773   */\n      tag_157\n        /* \"#utility.yul\":4766:4772   */\n      dup5\n        /* \"#utility.yul\":4725:4773   */\n      tag_75\n      jump\t// in\n    tag_157:\n        /* \"#utility.yul\":4709:4774   */\n      tag_74\n      jump\t// in\n    tag_156:\n        /* \"#utility.yul\":4700:4774   */\n      swap1\n      pop\n        /* \"#utility.yul\":4797:4803   */\n      dup3\n        /* \"#utility.yul\":4790:4795   */\n      dup2\n        /* \"#utility.yul\":4783:4804   */\n      mstore\n        /* \"#utility.yul\":4835:4839   */\n      0x20\n        /* \"#utility.yul\":4828:4833   */\n      dup2\n        /* \"#utility.yul\":4824:4840   */\n      add\n        /* \"#utility.yul\":4873:4876   */\n      dup5\n        /* \"#utility.yul\":4864:4870   */\n      dup5\n        /* \"#utility.yul\":4859:4862   */\n      dup5\n        /* \"#utility.yul\":4855:4871   */\n      add\n        /* \"#utility.yul\":4852:4877   */\n      gt\n        /* \"#utility.yul\":4849:4961   */\n      iszero\n      tag_158\n      jumpi\n        /* \"#utility.yul\":4880:4959   */\n      tag_159\n      tag_71\n      jump\t// in\n    tag_159:\n        /* \"#utility.yul\":4849:4961   */\n    tag_158:\n        /* \"#utility.yul\":4970:5024   */\n      tag_160\n        /* \"#utility.yul\":5017:5023   */\n      dup5\n        /* \"#utility.yul\":5012:5015   */\n      dup3\n        /* \"#utility.yul\":5007:5010   */\n      dup6\n        /* \"#utility.yul\":4970:5024   */\n      tag_76\n      jump\t// in\n    tag_160:\n        /* \"#utility.yul\":4690:5030   */\n      pop\n        /* \"#utility.yul\":4607:5030   */\n      swap4\n      swap3\n      pop\n      pop\n      pop\n      jump\t// out\n        /* \"#utility.yul\":5049:5387   */\n    tag_78:\n        /* \"#utility.yul\":5104:5109   */\n      0x00\n        /* \"#utility.yul\":5153:5156   */\n      dup3\n        /* \"#utility.yul\":5146:5150   */\n      0x1f\n        /* \"#utility.yul\":5138:5144   */\n      dup4\n        /* \"#utility.yul\":5134:5151   */\n      add\n        /* \"#utility.yul\":5130:5157   */\n      slt\n        /* \"#utility.yul\":5120:5242   */\n      tag_162\n      jumpi\n        /* \"#utility.yul\":5161:5240   */\n      tag_163\n      tag_70\n      jump\t// in\n    tag_163:\n        /* \"#utility.yul\":5120:5242   */\n    tag_162:\n        /* \"#utility.yul\":5278:5284   */\n      dup2\n        /* \"#utility.yul\":5265:5285   */\n      calldataload\n        /* \"#utility.yul\":5303:5381   */\n      tag_164\n        /* \"#utility.yul\":5377:5380   */\n      dup5\n        /* \"#utility.yul\":5369:5375   */\n      dup3\n        /* \"#utility.yul\":5362:5366   */\n      0x20\n        /* \"#utility.yul\":5354:5360   */\n      dup7\n        /* \"#utility.yul\":5350:5367   */\n      add\n        /* \"#utility.yul\":5303:5381   */\n      tag_77\n      jump\t// in\n    tag_164:\n        /* \"#utility.yul\":5294:5381   */\n      swap2\n      pop\n        /* \"#utility.yul\":5110:5387   */\n      pop\n        /* \"#utility.yul\":5049:5387   */\n      swap3\n      swap2\n      pop\n      pop\n      jump\t// out\n        /* \"#utility.yul\":5393:6188   */\n    tag_15:\n        /* \"#utility.yul\":5478:5484   */\n      0x00\n        /* \"#utility.yul\":5486:5492   */\n      dup1\n        /* \"#utility.yul\":5494:5500   */\n      0x00\n        /* \"#utility.yul\":5543:5545   */\n      0x60\n        /* \"#utility.yul\":5531:5540   */\n      dup5\n        /* \"#utility.yul\":5522:5529   */\n      dup7\n        /* \"#utility.yul\":5518:5541   */\n      sub\n        /* \"#utility.yul\":5514:5546   */\n      slt\n        /* \"#utility.yul\":5511:5630   */\n      iszero\n      tag_166\n      jumpi\n        /* \"#utility.yul\":5549:5628   */\n      tag_167\n      tag_53\n      jump\t// in\n    tag_167:\n        /* \"#utility.yul\":5511:5630   */\n    tag_166:\n        /* \"#utility.yul\":5669:5670   */\n      0x00\n        /* \"#utility.yul\":5694:5746   */\n      tag_168\n        /* \"#utility.yul\":5738:5745   */\n      dup7\n        /* \"#utility.yul\":5729:5735   */\n      dup3\n        /* \"#utility.yul\":5718:5727   */\n      dup8\n        /* \"#utility.yul\":5714:5736   */\n      add\n        /* \"#utility.yul\":5694:5746   */\n      tag_66\n      jump\t// in\n    tag_168:\n        /* \"#utility.yul\":5684:5746   */\n      swap4\n      pop\n        /* \"#utility.yul\":5640:5756   */\n      pop\n        /* \"#utility.yul\":5795:5797   */\n      0x20\n        /* \"#utility.yul\":5821:5874   */\n      tag_169\n        /* \"#utility.yul\":5866:5873   */\n      dup7\n        /* \"#utility.yul\":5857:5863   */\n      dup3\n        /* \"#utility.yul\":5846:5855   */\n      dup8\n        /* \"#utility.yul\":5842:5864   */\n      add\n        /* \"#utility.yul\":5821:5874   */\n      tag_69\n      jump\t// in\n    tag_169:\n        /* \"#utility.yul\":5811:5874   */\n      swap3\n      pop\n        /* \"#utility.yul\":5766:5884   */\n      pop\n        /* \"#utility.yul\":5951:5953   */\n      0x40\n        /* \"#utility.yul\":5940:5949   */\n      dup5\n        /* \"#utility.yul\":5936:5954   */\n      add\n        /* \"#utility.yul\":5923:5955   */\n      calldataload\n        /* \"#utility.yul\":5982:6000   */\n      0xffffffffffffffff\n        /* \"#utility.yul\":5974:5980   */\n      dup2\n        /* \"#utility.yul\":5971:6001   */\n      gt\n        /* \"#utility.yul\":5968:6085   */\n      iszero\n      tag_170\n      jumpi\n        /* \"#utility.yul\":6004:6083   */\n      tag_171\n      tag_54\n      jump\t// in\n    tag_171:\n        /* \"#utility.yul\":5968:6085   */\n    tag_170:\n        /* \"#utility.yul\":6109:6171   */\n      tag_172\n        /* \"#utility.yul\":6163:6170   */\n      dup7\n        /* \"#utility.yul\":6154:6160   */\n      dup3\n        /* \"#utility.yul\":6143:6152   */\n      dup8\n        /* \"#utility.yul\":6139:6161   */\n      add\n        /* \"#utility.yul\":6109:6171   */\n      tag_78\n      jump\t// in\n    tag_172:\n        /* \"#utility.yul\":6099:6171   */\n      swap2\n      pop\n        /* \"#utility.yul\":5894:6181   */\n      pop\n        /* \"#utility.yul\":5393:6188   */\n      swap3\n      pop\n      swap3\n      pop\n      swap3\n      jump\t// out\n        /* \"#utility.yul\":6194:6701   */\n    tag_19:\n        /* \"#utility.yul\":6262:6268   */\n      0x00\n        /* \"#utility.yul\":6311:6313   */\n      0x20\n        /* \"#utility.yul\":6299:6308   */\n      dup3\n        /* \"#utility.yul\":6290:6297   */\n      dup5\n        /* \"#utility.yul\":6286:6309   */\n      sub\n        /* \"#utility.yul\":6282:6314   */\n      slt\n        /* \"#utility.yul\":6279:6398   */\n      iszero\n      tag_174\n      jumpi\n        /* \"#utility.yul\":6317:6396   */\n      tag_175\n      tag_53\n      jump\t// in\n    tag_175:\n        /* \"#utility.yul\":6279:6398   */\n    tag_174:\n        /* \"#utility.yul\":6465:6466   */\n      0x00\n        /* \"#utility.yul\":6454:6463   */\n      dup3\n        /* \"#utility.yul\":6450:6467   */\n      add\n        /* \"#utility.yul\":6437:6468   */\n      calldataload\n        /* \"#utility.yul\":6495:6513   */\n      0xffffffffffffffff\n        /* \"#utility.yul\":6487:6493   */\n      dup2\n        /* \"#utility.yul\":6484:6514   */\n      gt\n        /* \"#utility.yul\":6481:6598   */\n      iszero\n      tag_176\n      jumpi\n        /* \"#utility.yul\":6517:6596   */\n      tag_177\n      tag_54\n      jump\t// in\n    tag_177:\n        /* \"#utility.yul\":6481:6598   */\n    tag_176:\n        /* \"#utility.yul\":6622:6684   */\n      tag_178\n        /* \"#utility.yul\":6676:6683   */\n      dup5\n        /* \"#utility.yul\":6667:6673   */\n      dup3\n        /* \"#utility.yul\":6656:6665   */\n      dup6\n        /* \"#utility.yul\":6652:6674   */\n      add\n        /* \"#utility.yul\":6622:6684   */\n      tag_78\n      jump\t// in\n    tag_178:\n        /* \"#utility.yul\":6612:6684   */\n      swap2\n      pop\n        /* \"#utility.yul\":6408:6694   */\n      pop\n        /* \"#utility.yul\":6194:6701   */\n      swap3\n      swap2\n      pop\n      pop\n      jump\t// out\n        /* \"#utility.yul\":6707:7324   */\n    tag_23:\n        /* \"#utility.yul\":6783:6789   */\n      0x00\n        /* \"#utility.yul\":6791:6797   */\n      dup1\n        /* \"#utility.yul\":6799:6805   */\n      0x00\n        /* \"#utility.yul\":6848:6850   */\n      0x60\n        /* \"#utility.yul\":6836:6845   */\n      dup5\n        /* \"#utility.yul\":6827:6834   */\n      dup7\n        /* \"#utility.yul\":6823:6846   */\n      sub\n        /* \"#utility.yul\":6819:6851   */\n      slt\n        /* \"#utility.yul\":6816:6935   */\n      iszero\n      tag_180\n      jumpi\n        /* \"#utility.yul\":6854:6933   */\n      tag_181\n      tag_53\n      jump\t// in\n    tag_181:\n        /* \"#utility.yul\":6816:6935   */\n    tag_180:\n        /* \"#utility.yul\":6974:6975   */\n      0x00\n        /* \"#utility.yul\":6999:7051   */\n      tag_182\n        /* \"#utility.yul\":7043:7050   */\n      dup7\n        /* \"#utility.yul\":7034:7040   */\n      dup3\n        /* \"#utility.yul\":7023:7032   */\n      dup8\n        /* \"#utility.yul\":7019:7041   */\n      add\n        /* \"#utility.yul\":6999:7051   */\n      tag_66\n      jump\t// in\n    tag_182:\n        /* \"#utility.yul\":6989:7051   */\n      swap4\n      pop\n        /* \"#utility.yul\":6945:7061   */\n      pop\n        /* \"#utility.yul\":7100:7102   */\n      0x20\n        /* \"#utility.yul\":7126:7179   */\n      tag_183\n        /* \"#utility.yul\":7171:7178   */\n      dup7\n        /* \"#utility.yul\":7162:7168   */\n      dup3\n        /* \"#utility.yul\":7151:7160   */\n      dup8\n        /* \"#utility.yul\":7147:7169   */\n      add\n        /* \"#utility.yul\":7126:7179   */\n      tag_69\n      jump\t// in\n    tag_183:\n        /* \"#utility.yul\":7116:7179   */\n      swap3\n      pop\n        /* \"#utility.yul\":7071:7189   */\n      pop\n        /* \"#utility.yul\":7228:7230   */\n      0x40\n        /* \"#utility.yul\":7254:7307   */\n      tag_184\n        /* \"#utility.yul\":7299:7306   */\n      dup7\n        /* \"#utility.yul\":7290:7296   */\n      dup3\n        /* \"#utility.yul\":7279:7288   */\n      dup8\n        /* \"#utility.yul\":7275:7297   */\n      add\n        /* \"#utility.yul\":7254:7307   */\n      tag_58\n      jump\t// in\n    tag_184:\n        /* \"#utility.yul\":7244:7307   */\n      swap2\n      pop\n        /* \"#utility.yul\":7199:7317   */\n      pop\n        /* \"#utility.yul\":6707:7324   */\n      swap3\n      pop\n      swap3\n      pop\n      swap3\n      jump\t// out\n        /* \"#utility.yul\":7330:7836   */\n    tag_26:\n        /* \"#utility.yul\":7487:7491   */\n      0x00\n        /* \"#utility.yul\":7525:7527   */\n      0x40\n        /* \"#utility.yul\":7514:7523   */\n      dup3\n        /* \"#utility.yul\":7510:7528   */\n      add\n        /* \"#utility.yul\":7502:7528   */\n      swap1\n      pop\n        /* \"#utility.yul\":7574:7583   */\n      dup2\n        /* \"#utility.yul\":7568:7572   */\n      dup2\n        /* \"#utility.yul\":7564:7584   */\n      sub\n        /* \"#utility.yul\":7560:7561   */\n      0x00\n        /* \"#utility.yul\":7549:7558   */\n      dup4\n        /* \"#utility.yul\":7545:7562   */\n      add\n        /* \"#utility.yul\":7538:7585   */\n      mstore\n        /* \"#utility.yul\":7602:7678   */\n      tag_186\n        /* \"#utility.yul\":7673:7677   */\n      dup2\n        /* \"#utility.yul\":7664:7670   */\n      dup6\n        /* \"#utility.yul\":7602:7678   */\n      tag_63\n      jump\t// in\n    tag_186:\n        /* \"#utility.yul\":7594:7678   */\n      swap1\n      pop\n        /* \"#utility.yul\":7725:7734   */\n      dup2\n        /* \"#utility.yul\":7719:7723   */\n      dup2\n        /* \"#utility.yul\":7715:7735   */\n      sub\n        /* \"#utility.yul\":7710:7712   */\n      0x20\n        /* \"#utility.yul\":7699:7708   */\n      dup4\n        /* \"#utility.yul\":7695:7713   */\n      add\n        /* \"#utility.yul\":7688:7736   */\n      mstore\n        /* \"#utility.yul\":7753:7829   */\n      tag_187\n        /* \"#utility.yul\":7824:7828   */\n      dup2\n        /* \"#utility.yul\":7815:7821   */\n      dup5\n        /* \"#utility.yul\":7753:7829   */\n      tag_63\n      jump\t// in\n    tag_187:\n        /* \"#utility.yul\":7745:7829   */\n      swap1\n      pop\n        /* \"#utility.yul\":7330:7836   */\n      swap4\n      swap3\n      pop\n      pop\n      pop\n      jump\t// out\n        /* \"#utility.yul\":7842:8022   */\n    tag_79:\n        /* \"#utility.yul\":7890:7967   */\n      0x4e487b7100000000000000000000000000000000000000000000000000000000\n        /* \"#utility.yul\":7887:7888   */\n      0x00\n        /* \"#utility.yul\":7880:7968   */\n      mstore\n        /* \"#utility.yul\":7987:7991   */\n      0x22\n        /* \"#utility.yul\":7984:7985   */\n      0x04\n        /* \"#utility.yul\":7977:7992   */\n      mstore\n        /* \"#utility.yul\":8011:8015   */\n      0x24\n        /* \"#utility.yul\":8008:8009   */\n      0x00\n        /* \"#utility.yul\":8001:8016   */\n      revert\n        /* \"#utility.yul\":8028:8348   */\n    tag_29:\n        /* \"#utility.yul\":8072:8078   */\n      0x00\n        /* \"#utility.yul\":8109:8110   */\n      0x02\n        /* \"#utility.yul\":8103:8107   */\n      dup3\n        /* \"#utility.yul\":8099:8111   */\n      div\n        /* \"#utility.yul\":8089:8111   */\n      swap1\n      pop\n        /* \"#utility.yul\":8156:8157   */\n      0x01\n        /* \"#utility.yul\":8150:8154   */\n      dup3\n        /* \"#utility.yul\":8146:8158   */\n      and\n        /* \"#utility.yul\":8177:8195   */\n      dup1\n        /* \"#utility.yul\":8167:8248   */\n      tag_190\n      jumpi\n        /* \"#utility.yul\":8233:8237   */\n      0x7f\n        /* \"#utility.yul\":8225:8231   */\n      dup3\n        /* \"#utility.yul\":8221:8238   */\n      and\n        /* \"#utility.yul\":8211:8238   */\n      swap2\n      pop\n        /* \"#utility.yul\":8167:8248   */\n    tag_190:\n        /* \"#utility.yul\":8295:8297   */\n      0x20\n        /* \"#utility.yul\":8287:8293   */\n      dup3\n        /* \"#utility.yul\":8284:8298   */\n      lt\n        /* \"#utility.yul\":8264:8282   */\n      dup2\n        /* \"#utility.yul\":8261:8299   */\n      sub\n        /* \"#utility.yul\":8258:8342   */\n      tag_191\n      jumpi\n        /* \"#utility.yul\":8314:8332   */\n      tag_192\n      tag_79\n      jump\t// in\n    tag_192:\n        /* \"#utility.yul\":8258:8342   */\n    tag_191:\n        /* \"#utility.yul\":8079:8348   */\n      pop\n        /* \"#utility.yul\":8028:8348   */\n      swap2\n      swap1\n      pop\n      jump\t// out\n        /* \"#utility.yul\":8354:8494   */\n    tag_80:\n        /* \"#utility.yul\":8402:8406   */\n      0x00\n        /* \"#utility.yul\":8425:8428   */\n      dup2\n        /* \"#utility.yul\":8417:8428   */\n      swap1\n      pop\n        /* \"#utility.yul\":8448:8451   */\n      dup2\n        /* \"#utility.yul\":8445:8446   */\n      0x00\n        /* \"#utility.yul\":8438:8452   */\n      mstore\n        /* \"#utility.yul\":8482:8486   */\n      0x20\n        /* \"#utility.yul\":8479:8480   */\n      0x00\n        /* \"#utility.yul\":8469:8487   */\n      keccak256\n        /* \"#utility.yul\":8461:8487   */\n      swap1\n      pop\n        /* \"#utility.yul\":8354:8494   */\n      swap2\n      swap1\n      pop\n      jump\t// out\n        /* \"#utility.yul\":8500:8593   */\n    tag_81:\n        /* \"#utility.yul\":8537:8543   */\n      0x00\n        /* \"#utility.yul\":8584:8586   */\n      0x20\n        /* \"#utility.yul\":8579:8581   */\n      0x1f\n        /* \"#utility.yul\":8572:8577   */\n      dup4\n        /* \"#utility.yul\":8568:8582   */\n      add\n        /* \"#utility.yul\":8564:8587   */\n      div\n        /* \"#utility.yul\":8554:8587   */\n      swap1\n      pop\n        /* \"#utility.yul\":8500:8593   */\n      swap2\n      swap1\n      pop\n      jump\t// out\n        /* \"#utility.yul\":8599:8706   */\n    tag_82:\n        /* \"#utility.yul\":8643:8651   */\n      0x00\n        /* \"#utility.yul\":8693:8698   */\n      dup3\n        /* \"#utility.yul\":8687:8691   */\n      dup3\n        /* \"#utility.yul\":8683:8699   */\n      shl\n        /* \"#utility.yul\":8662:8699   */\n      swap1\n      pop\n        /* \"#utility.yul\":8599:8706   */\n      swap3\n      swap2\n      pop\n      pop\n      jump\t// out\n        /* \"#utility.yul\":8712:9105   */\n    tag_83:\n        /* \"#utility.yul\":8781:8787   */\n      0x00\n        /* \"#utility.yul\":8831:8832   */\n      0x08\n        /* \"#utility.yul\":8819:8829   */\n      dup4\n        /* \"#utility.yul\":8815:8833   */\n      mul\n        /* \"#utility.yul\":8854:8951   */\n      tag_197\n        /* \"#utility.yul\":8884:8950   */\n      0xffffffffffffffffffffffffffffffffffffffffffffffffffffffffffffffff\n        /* \"#utility.yul\":8873:8882   */\n      dup3\n        /* \"#utility.yul\":8854:8951   */\n      tag_82\n      jump\t// in\n    tag_197:\n        /* \"#utility.yul\":8972:9011   */\n      tag_198\n        /* \"#utility.yul\":9002:9010   */\n      dup7\n        /* \"#utility.yul\":8991:9000   */\n      dup4\n        /* \"#utility.yul\":8972:9011   */\n      tag_82\n      jump\t// in\n    tag_198:\n        /* \"#utility.yul\":8960:9011   */\n      swap6\n      pop\n        /* \"#utility.yul\":9044:9048   */\n      dup1\n        /* \"#utility.yul\":9040:9049   */\n      not\n        /* \"#utility.yul\":9033:9038   */\n      dup5\n        /* \"#utility.yul\":9029:9050   */\n      and\n        /* \"#utility.yul\":9020:9050   */\n      swap4\n      pop\n        /* \"#utility.yul\":9093:9097   */\n      dup1\n        /* \"#utility.yul\":9083:9091   */\n      dup7\n        /* \"#utility.yul\":9079:9098   */\n      and\n        /* \"#utility.yul\":9072:9077   */\n      dup5\n        /* \"#utility.yul\":9069:9099   */\n      or\n        /* \"#utility.yul\":9059:9099   */\n      swap3\n      pop\n        /* \"#utility.yul\":8788:9105   */\n      pop\n      pop\n        /* \"#utility.yul\":8712:9105   */\n      swap4\n      swap3\n      pop\n      pop\n      pop\n      jump\t// out\n        /* \"#utility.yul\":9111:9171   */\n    tag_84:\n        /* \"#utility.yul\":9139:9142   */\n      0x00\n        /* \"#utility.yul\":9160:9165   */\n      dup2\n        /* \"#utility.yul\":9153:9165   */\n      swap1\n      pop\n        /* \"#utility.yul\":9111:9171   */\n      swap2\n      swap1\n      pop\n      jump\t// out\n        /* \"#utility.yul\":9177:9319   */\n    tag_85:\n        /* \"#utility.yul\":9227:9236   */\n      0x00\n        /* \"#utility.yul\":9260:9313   */\n      tag_201\n        /* \"#utility.yul\":9278:9312   */\n      tag_202\n        /* \"#utility.yul\":9287:9311   */\n      tag_203\n        /* \"#utility.yul\":9305:9310   */\n      dup5\n        /* \"#utility.yul\":9287:9311   */\n      tag_67\n      jump\t// in\n    tag_203:\n        /* \"#utility.yul\":9278:9312   */\n      tag_84\n      jump\t// in\n    tag_202:\n        /* \"#utility.yul\":9260:9313   */\n      tag_67\n      jump\t// in\n    tag_201:\n        /* \"#utility.yul\":9247:9313   */\n      swap1\n      pop\n        /* \"#utility.yul\":9177:9319   */\n      swap2\n      swap1\n      pop\n      jump\t// out\n        /* \"#utility.yul\":9325:9400   */\n    tag_86:\n        /* \"#utility.yul\":9368:9371   */\n      0x00\n        /* \"#utility.yul\":9389:9394   */\n      dup2\n        /* \"#utility.yul\":9382:9394   */\n      swap1\n      pop\n        /* \"#utility.yul\":9325:9400   */\n      swap2\n      swap1\n      pop\n      jump\t// out\n        /* \"#utility.yul\":9406:9675   */\n    tag_87:\n        /* \"#utility.yul\":9516:9555   */\n      tag_206\n        /* \"#utility.yul\":9547:9554   */\n      dup4\n        /* \"#utility.yul\":9516:9555   */\n      tag_85\n      jump\t// in\n    tag_206:\n        /* \"#utility.yul\":9577:9668   */\n      tag_207\n        /* \"#utility.yul\":9626:9667   */\n      tag_208\n        /* \"#utility.yul\":9650:9666   */\n      dup3\n        /* \"#utility.yul\":9626:9667   */\n      tag_86\n      jump\t// in\n    tag_208:\n        /* \"#utility.yul\":9618:9624   */\n      dup5\n        /* \"#utility.yul\":9611:9615   */\n      dup5\n        /* \"#utility.yul\":9605:9616   */\n      sload\n        /* \"#utility.yul\":9577:9668   */\n      tag_83\n      jump\t// in\n    tag_207:\n        /* \"#utility.yul\":9571:9575   */\n      dup3\n        /* \"#utility.yul\":9564:9669   */\n      sstore\n        /* \"#utility.yul\":9482:9675   */\n      pop\n        /* \"#utility.yul\":9406:9675   */\n      pop\n      pop\n      pop\n      jump\t// out\n        /* \"#utility.yul\":9681:9754   */\n    tag_88:\n        /* \"#utility.yul\":9726:9729   */\n      0x00\n        /* \"#utility.yul\":9681:9754   */\n      swap1\n      jump\t// out\n        /* \"#utility.yul\":9760:9949   */\n    tag_89:\n        /* \"#utility.yul\":9837:9869   */\n      tag_211\n      tag_88\n      jump\t// in\n    tag_211:\n        /* \"#utility.yul\":9878:9943   */\n      tag_212\n        /* \"#utility.yul\":9936:9942   */\n      dup2\n        /* \"#utility.yul\":9928:9934   */\n      dup5\n        /* \"#utility.yul\":9922:9926   */\n      dup5\n        /* \"#utility.yul\":9878:9943   */\n      tag_87\n      jump\t// in\n    tag_212:\n        /* \"#utility.yul\":9813:9949   */\n      pop\n        /* \"#utility.yul\":9760:9949   */\n      pop\n      pop\n      jump\t// out\n        /* \"#utility.yul\":9955:10141   */\n    tag_90:\n        /* \"#utility.yul\":10015:10135   */\n    tag_214:\n        /* \"#utility.yul\":10032:10035   */\n      dup2\n        /* \"#utility.yul\":10025:10030   */\n      dup2\n        /* \"#utility.yul\":10022:10036   */\n      lt\n        /* \"#utility.yul\":10015:10135   */\n      iszero\n      tag_216\n      jumpi\n        /* \"#utility.yul\":10086:10125   */\n      tag_217\n        /* \"#utility.yul\":10123:10124   */\n      0x00\n        /* \"#utility.yul\":10116:10121   */\n      dup3\n        /* \"#utility.yul\":10086:10125   */\n      tag_89\n      jump\t// in\n    tag_217:\n        /* \"#utility.yul\":10059:10060   */\n      0x01\n        /* \"#utility.yul\":10052:10057   */\n      dup2\n        /* \"#utility.yul\":10048:10061   */\n      add\n        /* \"#utility.yul\":10039:10061   */\n      swap1\n      pop\n        /* \"#utility.yul\":10015:10135   */\n      jump(tag_214)\n    tag_216:\n        /* \"#utility.yul\":9955:10141   */\n      pop\n      pop\n      jump\t// out\n        /* \"#utility.yul\":10147:10688   */\n    tag_91:\n        /* \"#utility.yul\":10247:10249   */\n      0x1f\n        /* \"#utility.yul\":10242:10245   */\n      dup3\n        /* \"#utility.yul\":10239:10250   */\n      gt\n        /* \"#utility.yul\":10236:10681   */\n      iszero\n      tag_219\n      jumpi\n        /* \"#utility.yul\":10281:10318   */\n      tag_220\n        /* \"#utility.yul\":10312:10317   */\n      dup2\n        /* \"#utility.yul\":10281:10318   */\n      tag_80\n      jump\t// in\n    tag_220:\n        /* \"#utility.yul\":10364:10393   */\n      tag_221\n        /* \"#utility.yul\":10382:10392   */\n      dup5\n        /* \"#utility.yul\":10364:10393   */\n      tag_81\n      jump\t// in\n    tag_221:\n        /* \"#utility.yul\":10354:10362   */\n      dup2\n        /* \"#utility.yul\":10350:10394   */\n      add\n        /* \"#utility.yul\":10547:10549   */\n      0x20\n        /* \"#utility.yul\":10535:10545   */\n      dup6\n        /* \"#utility.yul\":10532:10550   */\n      lt\n        /* \"#utility.yul\":10529:10578   */\n      iszero\n      tag_222\n      jumpi\n        /* \"#utility.yul\":10568:10576   */\n      dup2\n        /* \"#utility.yul\":10553:10576   */\n      swap1\n      pop\n        /* \"#utility.yul\":10529:10578   */\n    tag_222:\n        /* \"#utility.yul\":10591:10671   */\n      tag_223\n        /* \"#utility.yul\":10647:10669   */\n      tag_224\n        /* \"#utility.yul\":10665:10668   */\n      dup6\n        /* \"#utility.yul\":10647:10669   */\n      tag_81\n      jump\t// in\n    tag_224:\n        /* \"#utility.yul\":10637:10645   */\n      dup4\n        /* \"#utility.yul\":10633:10670   */\n      add\n        /* \"#utility.yul\":10620:10631   */\n      dup3\n        /* \"#utility.yul\":10591:10671   */\n      tag_90\n      jump\t// in\n    tag_223:\n        /* \"#utility.yul\":10251:10681   */\n      pop\n      pop\n        /* \"#utility.yul\":10236:10681   */\n    tag_219:\n        /* \"#utility.yul\":10147:10688   */\n      pop\n      pop\n      pop\n      jump\t// out\n        /* \"#utility.yul\":10694:10811   */\n    tag_92:\n        /* \"#utility.yul\":10748:10756   */\n      0x00\n        /* \"#utility.yul\":10798:10803   */\n      dup3\n        /* \"#utility.yul\":10792:10796   */\n      dup3\n        /* \"#utility.yul\":10788:10804   */\n      shr\n        /* \"#utility.yul\":10767:10804   */\n      swap1\n      pop\n        /* \"#utility.yul\":10694:10811   */\n      swap3\n      swap2\n      pop\n      pop\n      jump\t// out\n        /* \"#utility.yul\":10817:10986   */\n    tag_93:\n        /* \"#utility.yul\":10861:10867   */\n      0x00\n        /* \"#utility.yul\":10894:10945   */\n      tag_227\n        /* \"#utility.yul\":10942:10943   */\n      0x00\n        /* \"#utility.yul\":10938:10944   */\n      not\n        /* \"#utility.yul\":10930:10935   */\n      dup5\n        /* \"#utility.yul\":10927:10928   */\n      0x08\n        /* \"#utility.yul\":10923:10936   */\n      mul\n        /* \"#utility.yul\":10894:10945   */\n      tag_92\n      jump\t// in\n    tag_227:\n        /* \"#utility.yul\":10890:10946   */\n      not\n        /* \"#utility.yul\":10975:10979   */\n      dup1\n        /* \"#utility.yul\":10969:10973   */\n      dup4\n        /* \"#utility.yul\":10965:10980   */\n      and\n        /* \"#utility.yul\":10955:10980   */\n      swap2\n      pop\n        /* \"#utility.yul\":10868:10986   */\n      pop\n        /* \"#utility.yul\":10817:10986   */\n      swap3\n      swap2\n      pop\n      pop\n      jump\t// out\n        /* \"#utility.yul\":10991:11286   */\n    tag_94:\n        /* \"#utility.yul\":11067:11071   */\n      0x00\n        /* \"#utility.yul\":11213:11242   */\n      tag_229\n        /* \"#utility.yul\":11238:11241   */\n      dup4\n        /* \"#utility.yul\":11232:11236   */\n      dup4\n        /* \"#utility.yul\":11213:11242   */\n      tag_93\n      jump\t// in\n    tag_229:\n        /* \"#utility.yul\":11205:11242   */\n      swap2\n      pop\n        /* \"#utility.yul\":11275:11278   */\n      dup3\n        /* \"#utility.yul\":11272:11273   */\n      0x02\n        /* \"#utility.yul\":11268:11279   */\n      mul\n        /* \"#utility.yul\":11262:11266   */\n      dup3\n        /* \"#utility.yul\":11259:11280   */\n      or\n        /* \"#utility.yul\":11251:11280   */\n      swap1\n      pop\n        /* \"#utility.yul\":10991:11286   */\n      swap3\n      swap2\n      pop\n      pop\n      jump\t// out\n        /* \"#utility.yul\":11291:12681   */\n    tag_36:\n        /* \"#utility.yul\":11406:11442   */\n      tag_231\n        /* \"#utility.yul\":11438:11441   */\n      dup3\n        /* \"#utility.yul\":11406:11442   */\n      tag_59\n      jump\t// in\n    tag_231:\n        /* \"#utility.yul\":11507:11525   */\n      0xffffffffffffffff\n        /* \"#utility.yul\":11499:11505   */\n      dup2\n        /* \"#utility.yul\":11496:11526   */\n      gt\n        /* \"#utility.yul\":11493:11549   */\n      iszero\n      tag_232\n      jumpi\n        /* \"#utility.yul\":11529:11547   */\n      tag_233\n      tag_72\n      jump\t// in\n    tag_233:\n        /* \"#utility.yul\":11493:11549   */\n    tag_232:\n        /* \"#utility.yul\":11573:11611   */\n      tag_234\n        /* \"#utility.yul\":11605:11609   */\n      dup3\n        /* \"#utility.yul\":11599:11610   */\n      sload\n        /* \"#utility.yul\":11573:11611   */\n      tag_29\n      jump\t// in\n    tag_234:\n        /* \"#utility.yul\":11658:11724   */\n      tag_235\n        /* \"#utility.yul\":11717:11723   */\n      dup3\n        /* \"#utility.yul\":11709:11715   */\n      dup3\n        /* \"#utility.yul\":11703:11707   */\n      dup6\n        /* \"#utility.yul\":11658:11724   */\n      tag_91\n      jump\t// in\n    tag_235:\n        /* \"#utility.yul\":11751:11752   */\n      0x00\n        /* \"#utility.yul\":11775:11779   */\n      0x20\n        /* \"#utility.yul\":11762:11779   */\n      swap1\n      pop\n        /* \"#utility.yul\":11807:11809   */\n      0x1f\n        /* \"#utility.yul\":11799:11805   */\n      dup4\n        /* \"#utility.yul\":11796:11810   */\n      gt\n        /* \"#utility.yul\":11824:11825   */\n      0x01\n        /* \"#utility.yul\":11819:12436   */\n      dup2\n      eq\n      tag_237\n      jumpi\n        /* \"#utility.yul\":12480:12481   */\n      0x00\n        /* \"#utility.yul\":12497:12503   */\n      dup5\n        /* \"#utility.yul\":12494:12571   */\n      iszero\n      tag_238\n      jumpi\n        /* \"#utility.yul\":12546:12555   */\n      dup3\n        /* \"#utility.yul\":12541:12544   */\n      dup8\n        /* \"#utility.yul\":12537:12556   */\n      add\n        /* \"#utility.yul\":12531:12557   */\n      mload\n        /* \"#utility.yul\":12522:12557   */\n      swap1\n      pop\n        /* \"#utility.yul\":12494:12571   */\n    tag_238:\n        /* \"#utility.yul\":12597:12664   */\n      tag_239\n        /* \"#utility.yul\":12657:12663   */\n      dup6\n        /* \"#utility.yul\":12650:12655   */\n      dup3\n        /* \"#utility.yul\":12597:12664   */\n      tag_94\n      jump\t// in\n    tag_239:\n        /* \"#utility.yul\":12591:12595   */\n      dup7\n        /* \"#utility.yul\":12584:12665   */\n      sstore\n        /* \"#utility.yul\":12453:12675   */\n      pop\n        /* \"#utility.yul\":11789:12675   */\n      jump(tag_236)\n        /* \"#utility.yul\":11819:12436   */\n    tag_237:\n        /* \"#utility.yul\":11871:11875   */\n      0x1f\n        /* \"#utility.yul\":11867:11876   */\n      not\n        /* \"#utility.yul\":11859:11865   */\n      dup5\n        /* \"#utility.yul\":11855:11877   */\n      and\n        /* \"#utility.yul\":11905:11941   */\n      tag_240\n        /* \"#utility.yul\":11936:11940   */\n      dup7\n        /* \"#utility.yul\":11905:11941   */\n      tag_80\n      jump\t// in\n    tag_240:\n        /* \"#utility.yul\":11963:11964   */\n      0x00\n        /* \"#utility.yul\":11977:12185   */\n    tag_241:\n        /* \"#utility.yul\":11991:11998   */\n      dup3\n        /* \"#utility.yul\":11988:11989   */\n      dup2\n        /* \"#utility.yul\":11985:11999   */\n      lt\n        /* \"#utility.yul\":11977:12185   */\n      iszero\n      tag_243\n      jumpi\n        /* \"#utility.yul\":12070:12079   */\n      dup5\n        /* \"#utility.yul\":12065:12068   */\n      dup10\n        /* \"#utility.yul\":12061:12080   */\n      add\n        /* \"#utility.yul\":12055:12081   */\n      mload\n        /* \"#utility.yul\":12047:12053   */\n      dup3\n        /* \"#utility.yul\":12040:12082   */\n      sstore\n        /* \"#utility.yul\":12121:12122   */\n      0x01\n        /* \"#utility.yul\":12113:12119   */\n      dup3\n        /* \"#utility.yul\":12109:12123   */\n      add\n        /* \"#utility.yul\":12099:12123   */\n      swap2\n      pop\n        /* \"#utility.yul\":12168:12170   */\n      0x20\n        /* \"#utility.yul\":12157:12166   */\n      dup6\n        /* \"#utility.yul\":12153:12171   */\n      add\n        /* \"#utility.yul\":12140:12171   */\n      swap5\n      pop\n        /* \"#utility.yul\":12014:12018   */\n      0x20\n        /* \"#utility.yul\":12011:12012   */\n      dup2\n        /* \"#utility.yul\":12007:12019   */\n      add\n        /* \"#utility.yul\":12002:12019   */\n      swap1\n      pop\n        /* \"#utility.yul\":11977:12185   */\n      jump(tag_241)\n    tag_243:\n        /* \"#utility.yul\":12213:12219   */\n      dup7\n        /* \"#utility.yul\":12204:12211   */\n      dup4\n        /* \"#utility.yul\":12201:12220   */\n      lt\n        /* \"#utility.yul\":12198:12377   */\n      iszero\n      tag_244\n      jumpi\n        /* \"#utility.yul\":12271:12280   */\n      dup5\n        /* \"#utility.yul\":12266:12269   */\n      dup10\n        /* \"#utility.yul\":12262:12281   */\n      add\n        /* \"#utility.yul\":12256:12282   */\n      mload\n        /* \"#utility.yul\":12314:12362   */\n      tag_245\n        /* \"#utility.yul\":12356:12360   */\n      0x1f\n        /* \"#utility.yul\":12348:12354   */\n      dup10\n        /* \"#utility.yul\":12344:12361   */\n      and\n        /* \"#utility.yul\":12333:12342   */\n      dup3\n        /* \"#utility.yul\":12314:12362   */\n      tag_93\n      jump\t// in\n    tag_245:\n        /* \"#utility.yul\":12306:12312   */\n      dup4\n        /* \"#utility.yul\":12299:12363   */\n      sstore\n        /* \"#utility.yul\":12221:12377   */\n      pop\n        /* \"#utility.yul\":12198:12377   */\n    tag_244:\n        /* \"#utility.yul\":12423:12424   */\n      0x01\n        /* \"#utility.yul\":12419:12420   */\n      0x02\n        /* \"#utility.yul\":12411:12417   */\n      dup9\n        /* \"#utility.yul\":12407:12421   */\n      mul\n        /* \"#utility.yul\":12403:12425   */\n      add\n        /* \"#utility.yul\":12397:12401   */\n      dup9\n        /* \"#utility.yul\":12390:12426   */\n      sstore\n        /* \"#utility.yul\":11826:12436   */\n      pop\n      pop\n      pop\n        /* \"#utility.yul\":11789:12675   */\n    tag_236:\n      pop\n        /* \"#utility.yul\":11381:12681   */\n      pop\n      pop\n      pop\n        /* \"#utility.yul\":11291:12681   */\n      pop\n      pop\n      jump\t// out\n        /* \"#utility.yul\":12687:12802   */\n    tag_95:\n        /* \"#utility.yul\":12772:12795   */\n      tag_247\n        /* \"#utility.yul\":12789:12794   */\n      dup2\n        /* \"#utility.yul\":12772:12795   */\n      tag_64\n      jump\t// in\n    tag_247:\n        /* \"#utility.yul\":12767:12770   */\n      dup3\n        /* \"#utility.yul\":12760:12796   */\n      mstore\n        /* \"#utility.yul\":12687:12802   */\n      pop\n      pop\n      jump\t// out\n        /* \"#utility.yul\":12808:12926   */\n    tag_96:\n        /* \"#utility.yul\":12895:12919   */\n      tag_249\n        /* \"#utility.yul\":12913:12918   */\n      dup2\n        /* \"#utility.yul\":12895:12919   */\n      tag_67\n      jump\t// in\n    tag_249:\n        /* \"#utility.yul\":12890:12893   */\n      dup3\n        /* \"#utility.yul\":12883:12920   */\n      mstore\n        /* \"#utility.yul\":12808:12926   */\n      pop\n      pop\n      jump\t// out\n        /* \"#utility.yul\":12932:13050   */\n    tag_97:\n        /* \"#utility.yul\":13019:13043   */\n      tag_251\n        /* \"#utility.yul\":13037:13042   */\n      dup2\n        /* \"#utility.yul\":13019:13043   */\n      tag_56\n      jump\t// in\n    tag_251:\n        /* \"#utility.yul\":13014:13017   */\n      dup3\n        /* \"#utility.yul\":13007:13044   */\n      mstore\n        /* \"#utility.yul\":12932:13050   */\n      pop\n      pop\n      jump\t// out\n        /* \"#utility.yul\":13056:13692   */\n    tag_38:\n        /* \"#utility.yul\":13249:13253   */\n      0x00\n        /* \"#utility.yul\":13287:13290   */\n      0x80\n        /* \"#utility.yul\":13276:13285   */\n      dup3\n        /* \"#utility.yul\":13272:13291   */\n      add\n        /* \"#utility.yul\":13264:13291   */\n      swap1\n      pop\n        /* \"#utility.yul\":13301:13370   */\n      tag_253\n        /* \"#utility.yul\":13367:13368   */\n      0x00\n        /* \"#utility.yul\":13356:13365   */\n      dup4\n        /* \"#utility.yul\":13352:13369   */\n      add\n        /* \"#utility.yul\":13343:13349   */\n      dup8\n        /* \"#utility.yul\":13301:13370   */\n      tag_95\n      jump\t// in\n    tag_253:\n        /* \"#utility.yul\":13380:13452   */\n      tag_254\n        /* \"#utility.yul\":13448:13450   */\n      0x20\n        /* \"#utility.yul\":13437:13446   */\n      dup4\n        /* \"#utility.yul\":13433:13451   */\n      add\n        /* \"#utility.yul\":13424:13430   */\n      dup7\n        /* \"#utility.yul\":13380:13452   */\n      tag_96\n      jump\t// in\n    tag_254:\n        /* \"#utility.yul\":13499:13508   */\n      dup2\n        /* \"#utility.yul\":13493:13497   */\n      dup2\n        /* \"#utility.yul\":13489:13509   */\n      sub\n        /* \"#utility.yul\":13484:13486   */\n      0x40\n        /* \"#utility.yul\":13473:13482   */\n      dup4\n        /* \"#utility.yul\":13469:13487   */\n      add\n        /* \"#utility.yul\":13462:13510   */\n      mstore\n        /* \"#utility.yul\":13527:13603   */\n      tag_255\n        /* \"#utility.yul\":13598:13602   */\n      dup2\n        /* \"#utility.yul\":13589:13595   */\n      dup6\n        /* \"#utility.yul\":13527:13603   */\n      tag_63\n      jump\t// in\n    tag_255:\n        /* \"#utility.yul\":13519:13603   */\n      swap1\n      pop\n        /* \"#utility.yul\":13613:13685   */\n      tag_256\n        /* \"#utility.yul\":13681:13683   */\n      0x60\n        /* \"#utility.yul\":13670:13679   */\n      dup4\n        /* \"#utility.yul\":13666:13684   */\n      add\n        /* \"#utility.yul\":13657:13663   */\n      dup5\n        /* \"#utility.yul\":13613:13685   */\n      tag_97\n      jump\t// in\n    tag_256:\n        /* \"#utility.yul\":13056:13692   */\n      swap6\n      swap5\n      pop\n      pop\n      pop\n      pop\n      pop\n      jump\t// out\n\n    auxdata: 0xa264697066735822122090d58d1b59899643329233588da26962502f6175d0383318b4780169ef9030c664736f6c63430008130033\n}\n",
				"bytecode": {
					"linkReferences": {},
					"object": "608060405234801561001057600080fd5b50610cec806100206000396000f3fe608060405234801561001057600080fd5b506004361061004c5760003560e01c80630f260ca0146100515780637e0044091461008157806382fbdc9c1461009d578063edac6563146100b9575b600080fd5b61006b6004803603810190610066919061057b565b6100ea565b6040516100789190610638565b60405180910390f35b61009b6004803603810190610096919061081d565b6101bb565b005b6100b760048036038101906100b2919061088c565b6102af565b005b6100d360048036038101906100ce91906108d5565b6102ff565b6040516100e1929190610928565b60405180910390f35b6060600160008373ffffffffffffffffffffffffffffffffffffffff1673ffffffffffffffffffffffffffffffffffffffff16815260200190815260200160002080546101369061098e565b80601f01602080910402602001604051908101604052809291908181526020018280546101629061098e565b80156101af5780601f10610184576101008083540402835291602001916101af565b820191906000526020600020905b81548152906001019060200180831161019257829003601f168201915b50505050509050919050565b80600080857effffffffffffffffffffffffffffffffffffffffffffffffffffffffffffff19167effffffffffffffffffffffffffffffffffffffffffffffffffffffffffffff19168152602001908152602001600020600084815260200190815260200160002060003373ffffffffffffffffffffffffffffffffffffffff1673ffffffffffffffffffffffffffffffffffffffff168152602001908152602001600020908161026c9190610b6b565b507f05e59c60c32fb6565e9a30277c830760329a8da45b5eb3b0b995f70fb3c9682e838383336040516102a29493929190610c6a565b60405180910390a1505050565b80600160003373ffffffffffffffffffffffffffffffffffffffff1673ffffffffffffffffffffffffffffffffffffffff16815260200190815260200160002090816102fb9190610b6b565b5050565b606080600160008473ffffffffffffffffffffffffffffffffffffffff1673ffffffffffffffffffffffffffffffffffffffff168152602001908152602001600020600080877effffffffffffffffffffffffffffffffffffffffffffffffffffffffffffff19167effffffffffffffffffffffffffffffffffffffffffffffffffffffffffffff19168152602001908152602001600020600086815260200190815260200160002060008573ffffffffffffffffffffffffffffffffffffffff1673ffffffffffffffffffffffffffffffffffffffff1681526020019081526020016000208180546103f19061098e565b80601f016020809104026020016040519081016040528092919081815260200182805461041d9061098e565b801561046a5780601f1061043f5761010080835404028352916020019161046a565b820191906000526020600020905b81548152906001019060200180831161044d57829003601f168201915b5050505050915080805461047d9061098e565b80601f01602080910402602001604051908101604052809291908181526020018280546104a99061098e565b80156104f65780601f106104cb576101008083540402835291602001916104f6565b820191906000526020600020905b8154815290600101906020018083116104d957829003601f168201915b5050505050905091509150935093915050565b6000604051905090565b600080fd5b600080fd5b600073ffffffffffffffffffffffffffffffffffffffff82169050919050565b60006105488261051d565b9050919050565b6105588161053d565b811461056357600080fd5b50565b6000813590506105758161054f565b92915050565b60006020828403121561059157610590610513565b5b600061059f84828501610566565b91505092915050565b600081519050919050565b600082825260208201905092915050565b60005b838110156105e25780820151818401526020810190506105c7565b60008484015250505050565b6000601f19601f8301169050919050565b600061060a826105a8565b61061481856105b3565b93506106248185602086016105c4565b61062d816105ee565b840191505092915050565b6000602082019050818103600083015261065281846105ff565b905092915050565b60007fff0000000000000000000000000000000000000000000000000000000000000082169050919050565b61068f8161065a565b811461069a57600080fd5b50565b6000813590506106ac81610686565b92915050565b6000819050919050565b6106c5816106b2565b81146106d057600080fd5b50565b6000813590506106e2816106bc565b92915050565b600080fd5b600080fd5b7f4e487b7100000000000000000000000000000000000000000000000000000000600052604160045260246000fd5b61072a826105ee565b810181811067ffffffffffffffff82111715610749576107486106f2565b5b80604052505050565b600061075c610509565b90506107688282610721565b919050565b600067ffffffffffffffff821115610788576107876106f2565b5b610791826105ee565b9050602081019050919050565b82818337600083830152505050565b60006107c06107bb8461076d565b610752565b9050828152602081018484840111156107dc576107db6106ed565b5b6107e784828561079e565b509392505050565b600082601f830112610804576108036106e8565b5b81356108148482602086016107ad565b91505092915050565b60008060006060848603121561083657610835610513565b5b60006108448682870161069d565b9350506020610855868287016106d3565b925050604084013567ffffffffffffffff81111561087657610875610518565b5b610882868287016107ef565b9150509250925092565b6000602082840312156108a2576108a1610513565b5b600082013567ffffffffffffffff8111156108c0576108bf610518565b5b6108cc848285016107ef565b91505092915050565b6000806000606084860312156108ee576108ed610513565b5b60006108fc8682870161069d565b935050602061090d868287016106d3565b925050604061091e86828701610566565b9150509250925092565b6000604082019050818103600083015261094281856105ff565b9050818103602083015261095681846105ff565b90509392505050565b7f4e487b7100000000000000000000000000000000000000000000000000000000600052602260045260246000fd5b600060028204905060018216806109a657607f821691505b6020821081036109b9576109b861095f565b5b50919050565b60008190508160005260206000209050919050565b60006020601f8301049050919050565b600082821b905092915050565b600060088302610a217fffffffffffffffffffffffffffffffffffffffffffffffffffffffffffffffff826109e4565b610a2b86836109e4565b95508019841693508086168417925050509392505050565b6000819050919050565b6000610a68610a63610a5e846106b2565b610a43565b6106b2565b9050919050565b6000819050919050565b610a8283610a4d565b610a96610a8e82610a6f565b8484546109f1565b825550505050565b600090565b610aab610a9e565b610ab6818484610a79565b505050565b5b81811015610ada57610acf600082610aa3565b600181019050610abc565b5050565b601f821115610b1f57610af0816109bf565b610af9846109d4565b81016020851015610b08578190505b610b1c610b14856109d4565b830182610abb565b50505b505050565b600082821c905092915050565b6000610b4260001984600802610b24565b1980831691505092915050565b6000610b5b8383610b31565b9150826002028217905092915050565b610b74826105a8565b67ffffffffffffffff811115610b8d57610b8c6106f2565b5b610b97825461098e565b610ba2828285610ade565b600060209050601f831160018114610bd55760008415610bc3578287015190505b610bcd8582610b4f565b865550610c35565b601f198416610be3866109bf565b60005b82811015610c0b57848901518255600182019150602085019450602081019050610be6565b86831015610c285784890151610c24601f891682610b31565b8355505b6001600288020188555050505b505050505050565b610c468161065a565b82525050565b610c55816106b2565b82525050565b610c648161053d565b82525050565b6000608082019050610c7f6000830187610c3d565b610c8c6020830186610c4c565b8181036040830152610c9e81856105ff565b9050610cad6060830184610c5b565b9594505050505056fea264697066735822122090d58d1b59899643329233588da26962502f6175d0383318b4780169ef9030c664736f6c63430008130033",
					"opcodes": "PUSH1 0x80 PUSH1 0x40 MSTORE CALLVALUE DUP1 ISZERO PUSH2 0x10 JUMPI PUSH1 0x0 DUP1 REVERT JUMPDEST POP PUSH2 0xCEC DUP1 PUSH2 0x20 PUSH1 0x0 CODECOPY PUSH1 0x0 RETURN INVALID PUSH1 0x80 PUSH1 0x40 MSTORE CALLVALUE DUP1 ISZERO PUSH2 0x10 JUMPI PUSH1 0x0 DUP1 REVERT JUMPDEST POP PUSH1 0x4 CALLDATASIZE LT PUSH2 0x4C JUMPI PUSH1 0x0 CALLDATALOAD PUSH1 0xE0 SHR DUP1 PUSH4 0xF260CA0 EQ PUSH2 0x51 JUMPI DUP1 PUSH4 0x7E004409 EQ PUSH2 0x81 JUMPI DUP1 PUSH4 0x82FBDC9C EQ PUSH2 0x9D JUMPI DUP1 PUSH4 0xEDAC6563 EQ PUSH2 0xB9 JUMPI JUMPDEST PUSH1 0x0 DUP1 REVERT JUMPDEST PUSH2 0x6B PUSH1 0x4 DUP1 CALLDATASIZE SUB DUP2 ADD SWAP1 PUSH2 0x66 SWAP2 SWAP1 PUSH2 0x57B JUMP JUMPDEST PUSH2 0xEA JUMP JUMPDEST PUSH1 0x40 MLOAD PUSH2 0x78 SWAP2 SWAP1 PUSH2 0x638 JUMP JUMPDEST PUSH1 0x40 MLOAD DUP1 SWAP2 SUB SWAP1 RETURN JUMPDEST PUSH2 0x9B PUSH1 0x4 DUP1 CALLDATASIZE SUB DUP2 ADD SWAP1 PUSH2 0x96 SWAP2 SWAP1 PUSH2 0x81D JUMP JUMPDEST PUSH2 0x1BB JUMP JUMPDEST STOP JUMPDEST PUSH2 0xB7 PUSH1 0x4 DUP1 CALLDATASIZE SUB DUP2 ADD SWAP1 PUSH2 0xB2 SWAP2 SWAP1 PUSH2 0x88C JUMP JUMPDEST PUSH2 0x2AF JUMP JUMPDEST STOP JUMPDEST PUSH2 0xD3 PUSH1 0x4 DUP1 CALLDATASIZE SUB DUP2 ADD SWAP1 PUSH2 0xCE SWAP2 SWAP1 PUSH2 0x8D5 JUMP JUMPDEST PUSH2 0x2FF JUMP JUMPDEST PUSH1 0x40 MLOAD PUSH2 0xE1 SWAP3 SWAP2 SWAP1 PUSH2 0x928 JUMP JUMPDEST PUSH1 0x40 MLOAD DUP1 SWAP2 SUB SWAP1 RETURN JUMPDEST PUSH1 0x60 PUSH1 0x1 PUSH1 0x0 DUP4 PUSH20 0xFFFFFFFFFFFFFFFFFFFFFFFFFFFFFFFFFFFFFFFF AND PUSH20 0xFFFFFFFFFFFFFFFFFFFFFFFFFFFFFFFFFFFFFFFF AND DUP2 MSTORE PUSH1 0x20 ADD SWAP1 DUP2 MSTORE PUSH1 0x20 ADD PUSH1 0x0 KECCAK256 DUP1 SLOAD PUSH2 0x136 SWAP1 PUSH2 0x98E JUMP JUMPDEST DUP1 PUSH1 0x1F ADD PUSH1 0x20 DUP1 SWAP2 DIV MUL PUSH1 0x20 ADD PUSH1 0x40 MLOAD SWAP1 DUP2 ADD PUSH1 0x40 MSTORE DUP1 SWAP3 SWAP2 SWAP1 DUP2 DUP2 MSTORE PUSH1 0x20 ADD DUP3 DUP1 SLOAD PUSH2 0x162 SWAP1 PUSH2 0x98E JUMP JUMPDEST DUP1 ISZERO PUSH2 0x1AF JUMPI DUP1 PUSH1 0x1F LT PUSH2 0x184 JUMPI PUSH2 0x100 DUP1 DUP4 SLOAD DIV MUL DUP4 MSTORE SWAP2 PUSH1 0x20 ADD SWAP2 PUSH2 0x1AF JUMP JUMPDEST DUP3 ADD SWAP2 SWAP1 PUSH1 0x0 MSTORE PUSH1 0x20 PUSH1 0x0 KECCAK256 SWAP1 JUMPDEST DUP2 SLOAD DUP2 MSTORE SWAP1 PUSH1 0x1 ADD SWAP1 PUSH1 0x20 ADD DUP1 DUP4 GT PUSH2 0x192 JUMPI DUP3 SWAP1 SUB PUSH1 0x1F AND DUP3 ADD SWAP2 JUMPDEST POP POP POP POP POP SWAP1 POP SWAP2 SWAP1 POP JUMP JUMPDEST DUP1 PUSH1 0x0 DUP1 DUP6 PUSH31 0xFFFFFFFFFFFFFFFFFFFFFFFFFFFFFFFFFFFFFFFFFFFFFFFFFFFFFFFFFFFFFF NOT AND PUSH31 0xFFFFFFFFFFFFFFFFFFFFFFFFFFFFFFFFFFFFFFFFFFFFFFFFFFFFFFFFFFFFFF NOT AND DUP2 MSTORE PUSH1 0x20 ADD SWAP1 DUP2 MSTORE PUSH1 0x20 ADD PUSH1 0x0 KECCAK256 PUSH1 0x0 DUP5 DUP2 MSTORE PUSH1 0x20 ADD SWAP1 DUP2 MSTORE PUSH1 0x20 ADD PUSH1 0x0 KECCAK256 PUSH1 0x0 CALLER PUSH20 0xFFFFFFFFFFFFFFFFFFFFFFFFFFFFFFFFFFFFFFFF AND PUSH20 0xFFFFFFFFFFFFFFFFFFFFFFFFFFFFFFFFFFFFFFFF AND DUP2 MSTORE PUSH1 0x20 ADD SWAP1 DUP2 MSTORE PUSH1 0x20 ADD PUSH1 0x0 KECCAK256 SWAP1 DUP2 PUSH2 0x26C SWAP2 SWAP1 PUSH2 0xB6B JUMP JUMPDEST POP PUSH32 0x5E59C60C32FB6565E9A30277C830760329A8DA45B5EB3B0B995F70FB3C9682E DUP4 DUP4 DUP4 CALLER PUSH1 0x40 MLOAD PUSH2 0x2A2 SWAP5 SWAP4 SWAP3 SWAP2 SWAP1 PUSH2 0xC6A JUMP JUMPDEST PUSH1 0x40 MLOAD DUP1 SWAP2 SUB SWAP1 LOG1 POP POP POP JUMP JUMPDEST DUP1 PUSH1 0x1 PUSH1 0x0 CALLER PUSH20 0xFFFFFFFFFFFFFFFFFFFFFFFFFFFFFFFFFFFFFFFF AND PUSH20 0xFFFFFFFFFFFFFFFFFFFFFFFFFFFFFFFFFFFFFFFF AND DUP2 MSTORE PUSH1 0x20 ADD SWAP1 DUP2 MSTORE PUSH1 0x20 ADD PUSH1 0x0 KECCAK256 SWAP1 DUP2 PUSH2 0x2FB SWAP2 SWAP1 PUSH2 0xB6B JUMP JUMPDEST POP POP JUMP JUMPDEST PUSH1 0x60 DUP1 PUSH1 0x1 PUSH1 0x0 DUP5 PUSH20 0xFFFFFFFFFFFFFFFFFFFFFFFFFFFFFFFFFFFFFFFF AND PUSH20 0xFFFFFFFFFFFFFFFFFFFFFFFFFFFFFFFFFFFFFFFF AND DUP2 MSTORE PUSH1 0x20 ADD SWAP1 DUP2 MSTORE PUSH1 0x20 ADD PUSH1 0x0 KECCAK256 PUSH1 0x0 DUP1 DUP8 PUSH31 0xFFFFFFFFFFFFFFFFFFFFFFFFFFFFFFFFFFFFFFFFFFFFFFFFFFFFFFFFFFFFFF NOT AND PUSH31 0xFFFFFFFFFFFFFFFFFFFFFFFFFFFFFFFFFFFFFFFFFFFFFFFFFFFFFFFFFFFFFF NOT AND DUP2 MSTORE PUSH1 0x20 ADD SWAP1 DUP2 MSTORE PUSH1 0x20 ADD PUSH1 0x0 KECCAK256 PUSH1 0x0 DUP7 DUP2 MSTORE PUSH1 0x20 ADD SWAP1 DUP2 MSTORE PUSH1 0x20 ADD PUSH1 0x0 KECCAK256 PUSH1 0x0 DUP6 PUSH20 0xFFFFFFFFFFFFFFFFFFFFFFFFFFFFFFFFFFFFFFFF AND PUSH20 0xFFFFFFFFFFFFFFFFFFFFFFFFFFFFFFFFFFFFFFFF AND DUP2 MSTORE PUSH1 0x20 ADD SWAP1 DUP2 MSTORE PUSH1 0x20 ADD PUSH1 0x0 KECCAK256 DUP2 DUP1 SLOAD PUSH2 0x3F1 SWAP1 PUSH2 0x98E JUMP JUMPDEST DUP1 PUSH1 0x1F ADD PUSH1 0x20 DUP1 SWAP2 DIV MUL PUSH1 0x20 ADD PUSH1 0x40 MLOAD SWAP1 DUP2 ADD PUSH1 0x40 MSTORE DUP1 SWAP3 SWAP2 SWAP1 DUP2 DUP2 MSTORE PUSH1 0x20 ADD DUP3 DUP1 SLOAD PUSH2 0x41D SWAP1 PUSH2 0x98E JUMP JUMPDEST DUP1 ISZERO PUSH2 0x46A JUMPI DUP1 PUSH1 0x1F LT PUSH2 0x43F JUMPI PUSH2 0x100 DUP1 DUP4 SLOAD DIV MUL DUP4 MSTORE SWAP2 PUSH1 0x20 ADD SWAP2 PUSH2 0x46A JUMP JUMPDEST DUP3 ADD SWAP2 SWAP1 PUSH1 0x0 MSTORE PUSH1 0x20 PUSH1 0x0 KECCAK256 SWAP1 JUMPDEST DUP2 SLOAD DUP2 MSTORE SWAP1 PUSH1 0x1 ADD SWAP1 PUSH1 0x20 ADD DUP1 DUP4 GT PUSH2 0x44D JUMPI DUP3 SWAP1 SUB PUSH1 0x1F AND DUP3 ADD SWAP2 JUMPDEST POP POP POP POP POP SWAP2 POP DUP1 DUP1 SLOAD PUSH2 0x47D SWAP1 PUSH2 0x98E JUMP JUMPDEST DUP1 PUSH1 0x1F ADD PUSH1 0x20 DUP1 SWAP2 DIV MUL PUSH1 0x20 ADD PUSH1 0x40 MLOAD SWAP1 DUP2 ADD PUSH1 0x40 MSTORE DUP1 SWAP3 SWAP2 SWAP1 DUP2 DUP2 MSTORE PUSH1 0x20 ADD DUP3 DUP1 SLOAD PUSH2 0x4A9 SWAP1 PUSH2 0x98E JUMP JUMPDEST DUP1 ISZERO PUSH2 0x4F6 JUMPI DUP1 PUSH1 0x1F LT PUSH2 0x4CB JUMPI PUSH2 0x100 DUP1 DUP4 SLOAD DIV MUL DUP4 MSTORE SWAP2 PUSH1 0x20 ADD SWAP2 PUSH2 0x4F6 JUMP JUMPDEST DUP3 ADD SWAP2 SWAP1 PUSH1 0x0 MSTORE PUSH1 0x20 PUSH1 0x0 KECCAK256 SWAP1 JUMPDEST DUP2 SLOAD DUP2 MSTORE SWAP1 PUSH1 0x1 ADD SWAP1 PUSH1 0x20 ADD DUP1 DUP4 GT PUSH2 0x4D9 JUMPI DUP3 SWAP1 SUB PUSH1 0x1F AND DUP3 ADD SWAP2 JUMPDEST POP POP POP POP POP SWAP1 POP SWAP2 POP SWAP2 POP SWAP4 POP SWAP4 SWAP2 POP POP JUMP JUMPDEST PUSH1 0x0 PUSH1 0x40 MLOAD SWAP1 POP SWAP1 JUMP JUMPDEST PUSH1 0x0 DUP1 REVERT JUMPDEST PUSH1 0x0 DUP1 REVERT JUMPDEST PUSH1 0x0 PUSH20 0xFFFFFFFFFFFFFFFFFFFFFFFFFFFFFFFFFFFFFFFF DUP3 AND SWAP1 POP SWAP2 SWAP1 POP JUMP JUMPDEST PUSH1 0x0 PUSH2 0x548 DUP3 PUSH2 0x51D JUMP JUMPDEST SWAP1 POP SWAP2 SWAP1 POP JUMP JUMPDEST PUSH2 0x558 DUP2 PUSH2 0x53D JUMP JUMPDEST DUP2 EQ PUSH2 0x563 JUMPI PUSH1 0x0 DUP1 REVERT JUMPDEST POP JUMP JUMPDEST PUSH1 0x0 DUP2 CALLDATALOAD SWAP1 POP PUSH2 0x575 DUP2 PUSH2 0x54F JUMP JUMPDEST SWAP3 SWAP2 POP POP JUMP JUMPDEST PUSH1 0x0 PUSH1 0x20 DUP3 DUP5 SUB SLT ISZERO PUSH2 0x591 JUMPI PUSH2 0x590 PUSH2 0x513 JUMP JUMPDEST JUMPDEST PUSH1 0x0 PUSH2 0x59F DUP5 DUP3 DUP6 ADD PUSH2 0x566 JUMP JUMPDEST SWAP2 POP POP SWAP3 SWAP2 POP POP JUMP JUMPDEST PUSH1 0x0 DUP2 MLOAD SWAP1 POP SWAP2 SWAP1 POP JUMP JUMPDEST PUSH1 0x0 DUP3 DUP3 MSTORE PUSH1 0x20 DUP3 ADD SWAP1 POP SWAP3 SWAP2 POP POP JUMP JUMPDEST PUSH1 0x0 JUMPDEST DUP4 DUP2 LT ISZERO PUSH2 0x5E2 JUMPI DUP1 DUP3 ADD MLOAD DUP2 DUP5 ADD MSTORE PUSH1 0x20 DUP2 ADD SWAP1 POP PUSH2 0x5C7 JUMP JUMPDEST PUSH1 0x0 DUP5 DUP5 ADD MSTORE POP POP POP POP JUMP JUMPDEST PUSH1 0x0 PUSH1 0x1F NOT PUSH1 0x1F DUP4 ADD AND SWAP1 POP SWAP2 SWAP1 POP JUMP JUMPDEST PUSH1 0x0 PUSH2 0x60A DUP3 PUSH2 0x5A8 JUMP JUMPDEST PUSH2 0x614 DUP2 DUP6 PUSH2 0x5B3 JUMP JUMPDEST SWAP4 POP PUSH2 0x624 DUP2 DUP6 PUSH1 0x20 DUP7 ADD PUSH2 0x5C4 JUMP JUMPDEST PUSH2 0x62D DUP2 PUSH2 0x5EE JUMP JUMPDEST DUP5 ADD SWAP2 POP POP SWAP3 SWAP2 POP POP JUMP JUMPDEST PUSH1 0x0 PUSH1 0x20 DUP3 ADD SWAP1 POP DUP2 DUP2 SUB PUSH1 0x0 DUP4 ADD MSTORE PUSH2 0x652 DUP2 DUP5 PUSH2 0x5FF JUMP JUMPDEST SWAP1 POP SWAP3 SWAP2 POP POP JUMP JUMPDEST PUSH1 0x0 PUSH32 0xFF00000000000000000000000000000000000000000000000000000000000000 DUP3 AND SWAP1 POP SWAP2 SWAP1 POP JUMP JUMPDEST PUSH2 0x68F DUP2 PUSH2 0x65A JUMP JUMPDEST DUP2 EQ PUSH2 0x69A JUMPI PUSH1 0x0 DUP1 REVERT JUMPDEST POP JUMP JUMPDEST PUSH1 0x0 DUP2 CALLDATALOAD SWAP1 POP PUSH2 0x6AC DUP2 PUSH2 0x686 JUMP JUMPDEST SWAP3 SWAP2 POP POP JUMP JUMPDEST PUSH1 0x0 DUP2 SWAP1 POP SWAP2 SWAP1 POP JUMP JUMPDEST PUSH2 0x6C5 DUP2 PUSH2 0x6B2 JUMP JUMPDEST DUP2 EQ PUSH2 0x6D0 JUMPI PUSH1 0x0 DUP1 REVERT JUMPDEST POP JUMP JUMPDEST PUSH1 0x0 DUP2 CALLDATALOAD SWAP1 POP PUSH2 0x6E2 DUP2 PUSH2 0x6BC JUMP JUMPDEST SWAP3 SWAP2 POP POP JUMP JUMPDEST PUSH1 0x0 DUP1 REVERT JUMPDEST PUSH1 0x0 DUP1 REVERT JUMPDEST PUSH32 0x4E487B7100000000000000000000000000000000000000000000000000000000 PUSH1 0x0 MSTORE PUSH1 0x41 PUSH1 0x4 MSTORE PUSH1 0x24 PUSH1 0x0 REVERT JUMPDEST PUSH2 0x72A DUP3 PUSH2 0x5EE JUMP JUMPDEST DUP2 ADD DUP2 DUP2 LT PUSH8 0xFFFFFFFFFFFFFFFF DUP3 GT OR ISZERO PUSH2 0x749 JUMPI PUSH2 0x748 PUSH2 0x6F2 JUMP JUMPDEST JUMPDEST DUP1 PUSH1 0x40 MSTORE POP POP POP JUMP JUMPDEST PUSH1 0x0 PUSH2 0x75C PUSH2 0x509 JUMP JUMPDEST SWAP1 POP PUSH2 0x768 DUP3 DUP3 PUSH2 0x721 JUMP JUMPDEST SWAP2 SWAP1 POP JUMP JUMPDEST PUSH1 0x0 PUSH8 0xFFFFFFFFFFFFFFFF DUP3 GT ISZERO PUSH2 0x788 JUMPI PUSH2 0x787 PUSH2 0x6F2 JUMP JUMPDEST JUMPDEST PUSH2 0x791 DUP3 PUSH2 0x5EE JUMP JUMPDEST SWAP1 POP PUSH1 0x20 DUP2 ADD SWAP1 POP SWAP2 SWAP1 POP JUMP JUMPDEST DUP3 DUP2 DUP4 CALLDATACOPY PUSH1 0x0 DUP4 DUP4 ADD MSTORE POP POP POP JUMP JUMPDEST PUSH1 0x0 PUSH2 0x7C0 PUSH2 0x7BB DUP5 PUSH2 0x76D JUMP JUMPDEST PUSH2 0x752 JUMP JUMPDEST SWAP1 POP DUP3 DUP2 MSTORE PUSH1 0x20 DUP2 ADD DUP5 DUP5 DUP5 ADD GT ISZERO PUSH2 0x7DC JUMPI PUSH2 0x7DB PUSH2 0x6ED JUMP JUMPDEST JUMPDEST PUSH2 0x7E7 DUP5 DUP3 DUP6 PUSH2 0x79E JUMP JUMPDEST POP SWAP4 SWAP3 POP POP POP JUMP JUMPDEST PUSH1 0x0 DUP3 PUSH1 0x1F DUP4 ADD SLT PUSH2 0x804 JUMPI PUSH2 0x803 PUSH2 0x6E8 JUMP JUMPDEST JUMPDEST DUP2 CALLDATALOAD PUSH2 0x814 DUP5 DUP3 PUSH1 0x20 DUP7 ADD PUSH2 0x7AD JUMP JUMPDEST SWAP2 POP POP SWAP3 SWAP2 POP POP JUMP JUMPDEST PUSH1 0x0 DUP1 PUSH1 0x0 PUSH1 0x60 DUP5 DUP7 SUB SLT ISZERO PUSH2 0x836 JUMPI PUSH2 0x835 PUSH2 0x513 JUMP JUMPDEST JUMPDEST PUSH1 0x0 PUSH2 0x844 DUP7 DUP3 DUP8 ADD PUSH2 0x69D JUMP JUMPDEST SWAP4 POP POP PUSH1 0x20 PUSH2 0x855 DUP7 DUP3 DUP8 ADD PUSH2 0x6D3 JUMP JUMPDEST SWAP3 POP POP PUSH1 0x40 DUP5 ADD CALLDATALOAD PUSH8 0xFFFFFFFFFFFFFFFF DUP2 GT ISZERO PUSH2 0x876 JUMPI PUSH2 0x875 PUSH2 0x518 JUMP JUMPDEST JUMPDEST PUSH2 0x882 DUP7 DUP3 DUP8 ADD PUSH2 0x7EF JUMP JUMPDEST SWAP2 POP POP SWAP3 POP SWAP3 POP SWAP3 JUMP JUMPDEST PUSH1 0x0 PUSH1 0x20 DUP3 DUP5 SUB SLT ISZERO PUSH2 0x8A2 JUMPI PUSH2 0x8A1 PUSH2 0x513 JUMP JUMPDEST JUMPDEST PUSH1 0x0 DUP3 ADD CALLDATALOAD PUSH8 0xFFFFFFFFFFFFFFFF DUP2 GT ISZERO PUSH2 0x8C0 JUMPI PUSH2 0x8BF PUSH2 0x518 JUMP JUMPDEST JUMPDEST PUSH2 0x8CC DUP5 DUP3 DUP6 ADD PUSH2 0x7EF JUMP JUMPDEST SWAP2 POP POP SWAP3 SWAP2 POP POP JUMP JUMPDEST PUSH1 0x0 DUP1 PUSH1 0x0 PUSH1 0x60 DUP5 DUP7 SUB SLT ISZERO PUSH2 0x8EE JUMPI PUSH2 0x8ED PUSH2 0x513 JUMP JUMPDEST JUMPDEST PUSH1 0x0 PUSH2 0x8FC DUP7 DUP3 DUP8 ADD PUSH2 0x69D JUMP JUMPDEST SWAP4 POP POP PUSH1 0x20 PUSH2 0x90D DUP7 DUP3 DUP8 ADD PUSH2 0x6D3 JUMP JUMPDEST SWAP3 POP POP PUSH1 0x40 PUSH2 0x91E DUP7 DUP3 DUP8 ADD PUSH2 0x566 JUMP JUMPDEST SWAP2 POP POP SWAP3 POP SWAP3 POP SWAP3 JUMP JUMPDEST PUSH1 0x0 PUSH1 0x40 DUP3 ADD SWAP1 POP DUP2 DUP2 SUB PUSH1 0x0 DUP4 ADD MSTORE PUSH2 0x942 DUP2 DUP6 PUSH2 0x5FF JUMP JUMPDEST SWAP1 POP DUP2 DUP2 SUB PUSH1 0x20 DUP4 ADD MSTORE PUSH2 0x956 DUP2 DUP5 PUSH2 0x5FF JUMP JUMPDEST SWAP1 POP SWAP4 SWAP3 POP POP POP JUMP JUMPDEST PUSH32 0x4E487B7100000000000000000000000000000000000000000000000000000000 PUSH1 0x0 MSTORE PUSH1 0x22 PUSH1 0x4 MSTORE PUSH1 0x24 PUSH1 0x0 REVERT JUMPDEST PUSH1 0x0 PUSH1 0x2 DUP3 DIV SWAP1 POP PUSH1 0x1 DUP3 AND DUP1 PUSH2 0x9A6 JUMPI PUSH1 0x7F DUP3 AND SWAP2 POP JUMPDEST PUSH1 0x20 DUP3 LT DUP2 SUB PUSH2 0x9B9 JUMPI PUSH2 0x9B8 PUSH2 0x95F JUMP JUMPDEST JUMPDEST POP SWAP2 SWAP1 POP JUMP JUMPDEST PUSH1 0x0 DUP2 SWAP1 POP DUP2 PUSH1 0x0 MSTORE PUSH1 0x20 PUSH1 0x0 KECCAK256 SWAP1 POP SWAP2 SWAP1 POP JUMP JUMPDEST PUSH1 0x0 PUSH1 0x20 PUSH1 0x1F DUP4 ADD DIV SWAP1 POP SWAP2 SWAP1 POP JUMP JUMPDEST PUSH1 0x0 DUP3 DUP3 SHL SWAP1 POP SWAP3 SWAP2 POP POP JUMP JUMPDEST PUSH1 0x0 PUSH1 0x8 DUP4 MUL PUSH2 0xA21 PUSH32 0xFFFFFFFFFFFFFFFFFFFFFFFFFFFFFFFFFFFFFFFFFFFFFFFFFFFFFFFFFFFFFFFF DUP3 PUSH2 0x9E4 JUMP JUMPDEST PUSH2 0xA2B DUP7 DUP4 PUSH2 0x9E4 JUMP JUMPDEST SWAP6 POP DUP1 NOT DUP5 AND SWAP4 POP DUP1 DUP7 AND DUP5 OR SWAP3 POP POP POP SWAP4 SWAP3 POP POP POP JUMP JUMPDEST PUSH1 0x0 DUP2 SWAP1 POP SWAP2 SWAP1 POP JUMP JUMPDEST PUSH1 0x0 PUSH2 0xA68 PUSH2 0xA63 PUSH2 0xA5E DUP5 PUSH2 0x6B2 JUMP JUMPDEST PUSH2 0xA43 JUMP JUMPDEST PUSH2 0x6B2 JUMP JUMPDEST SWAP1 POP SWAP2 SWAP1 POP JUMP JUMPDEST PUSH1 0x0 DUP2 SWAP1 POP SWAP2 SWAP1 POP JUMP JUMPDEST PUSH2 0xA82 DUP4 PUSH2 0xA4D JUMP JUMPDEST PUSH2 0xA96 PUSH2 0xA8E DUP3 PUSH2 0xA6F JUMP JUMPDEST DUP5 DUP5 SLOAD PUSH2 0x9F1 JUMP JUMPDEST DUP3 SSTORE POP POP POP POP JUMP JUMPDEST PUSH1 0x0 SWAP1 JUMP JUMPDEST PUSH2 0xAAB PUSH2 0xA9E JUMP JUMPDEST PUSH2 0xAB6 DUP2 DUP5 DUP5 PUSH2 0xA79 JUMP JUMPDEST POP POP POP JUMP JUMPDEST JUMPDEST DUP2 DUP2 LT ISZERO PUSH2 0xADA JUMPI PUSH2 0xACF PUSH1 0x0 DUP3 PUSH2 0xAA3 JUMP JUMPDEST PUSH1 0x1 DUP2 ADD SWAP1 POP PUSH2 0xABC JUMP JUMPDEST POP POP JUMP JUMPDEST PUSH1 0x1F DUP3 GT ISZERO PUSH2 0xB1F JUMPI PUSH2 0xAF0 DUP2 PUSH2 0x9BF JUMP JUMPDEST PUSH2 0xAF9 DUP5 PUSH2 0x9D4 JUMP JUMPDEST DUP2 ADD PUSH1 0x20 DUP6 LT ISZERO PUSH2 0xB08 JUMPI DUP2 SWAP1 POP JUMPDEST PUSH2 0xB1C PUSH2 0xB14 DUP6 PUSH2 0x9D4 JUMP JUMPDEST DUP4 ADD DUP3 PUSH2 0xABB JUMP JUMPDEST POP POP JUMPDEST POP POP POP JUMP JUMPDEST PUSH1 0x0 DUP3 DUP3 SHR SWAP1 POP SWAP3 SWAP2 POP POP JUMP JUMPDEST PUSH1 0x0 PUSH2 0xB42 PUSH1 0x0 NOT DUP5 PUSH1 0x8 MUL PUSH2 0xB24 JUMP JUMPDEST NOT DUP1 DUP4 AND SWAP2 POP POP SWAP3 SWAP2 POP POP JUMP JUMPDEST PUSH1 0x0 PUSH2 0xB5B DUP4 DUP4 PUSH2 0xB31 JUMP JUMPDEST SWAP2 POP DUP3 PUSH1 0x2 MUL DUP3 OR SWAP1 POP SWAP3 SWAP2 POP POP JUMP JUMPDEST PUSH2 0xB74 DUP3 PUSH2 0x5A8 JUMP JUMPDEST PUSH8 0xFFFFFFFFFFFFFFFF DUP2 GT ISZERO PUSH2 0xB8D JUMPI PUSH2 0xB8C PUSH2 0x6F2 JUMP JUMPDEST JUMPDEST PUSH2 0xB97 DUP3 SLOAD PUSH2 0x98E JUMP JUMPDEST PUSH2 0xBA2 DUP3 DUP3 DUP6 PUSH2 0xADE JUMP JUMPDEST PUSH1 0x0 PUSH1 0x20 SWAP1 POP PUSH1 0x1F DUP4 GT PUSH1 0x1 DUP2 EQ PUSH2 0xBD5 JUMPI PUSH1 0x0 DUP5 ISZERO PUSH2 0xBC3 JUMPI DUP3 DUP8 ADD MLOAD SWAP1 POP JUMPDEST PUSH2 0xBCD DUP6 DUP3 PUSH2 0xB4F JUMP JUMPDEST DUP7 SSTORE POP PUSH2 0xC35 JUMP JUMPDEST PUSH1 0x1F NOT DUP5 AND PUSH2 0xBE3 DUP7 PUSH2 0x9BF JUMP JUMPDEST PUSH1 0x0 JUMPDEST DUP3 DUP2 LT ISZERO PUSH2 0xC0B JUMPI DUP5 DUP10 ADD MLOAD DUP3 SSTORE PUSH1 0x1 DUP3 ADD SWAP2 POP PUSH1 0x20 DUP6 ADD SWAP5 POP PUSH1 0x20 DUP2 ADD SWAP1 POP PUSH2 0xBE6 JUMP JUMPDEST DUP7 DUP4 LT ISZERO PUSH2 0xC28 JUMPI DUP5 DUP10 ADD MLOAD PUSH2 0xC24 PUSH1 0x1F DUP10 AND DUP3 PUSH2 0xB31 JUMP JUMPDEST DUP4 SSTORE POP JUMPDEST PUSH1 0x1 PUSH1 0x2 DUP9 MUL ADD DUP9 SSTORE POP POP POP JUMPDEST POP POP POP POP POP POP JUMP JUMPDEST PUSH2 0xC46 DUP2 PUSH2 0x65A JUMP JUMPDEST DUP3 MSTORE POP POP JUMP JUMPDEST PUSH2 0xC55 DUP2 PUSH2 0x6B2 JUMP JUMPDEST DUP3 MSTORE POP POP JUMP JUMPDEST PUSH2 0xC64 DUP2 PUSH2 0x53D JUMP JUMPDEST DUP3 MSTORE POP POP JUMP JUMPDEST PUSH1 0x0 PUSH1 0x80 DUP3 ADD SWAP1 POP PUSH2 0xC7F PUSH1 0x0 DUP4 ADD DUP8 PUSH2 0xC3D JUMP JUMPDEST PUSH2 0xC8C PUSH1 0x20 DUP4 ADD DUP7 PUSH2 0xC4C JUMP JUMPDEST DUP2 DUP2 SUB PUSH1 0x40 DUP4 ADD MSTORE PUSH2 0xC9E DUP2 DUP6 PUSH2 0x5FF JUMP JUMPDEST SWAP1 POP PUSH2 0xCAD PUSH1 0x60 DUP4 ADD DUP5 PUSH2 0xC5B JUMP JUMPDEST SWAP6 SWAP5 POP POP POP POP POP JUMP INVALID LOG2 PUSH5 0x6970667358 0x22 SLT KECCAK256 SWAP1 0xD5 DUP14 SHL MSIZE DUP10 SWAP7 NUMBER ORIGIN SWAP3 CALLER PC DUP14 LOG2 PUSH10 0x62502F6175D0383318B4 PUSH25 0x169EF9030C664736F6C634300081300330000000000000000 "
				},
				"gasEstimates": {
					"creation": {
						"codeDepositCost": "661600",
						"executionCost": "696",
						"totalCost": "662296"
					},
					"external": {
						"getNotarization(bytes1,uint256,address)": "infinite",
						"getPubkey(address)": "infinite",
						"notarize(bytes1,uint256,bytes)": "infinite",
						"register(bytes)": "infinite"
					}
				},
				"methodIdentifiers": {
					"getNotarization(bytes1,uint256,address)": "edac6563",
					"getPubkey(address)": "0f260ca0",
					"notarize(bytes1,uint256,bytes)": "7e004409",
					"register(bytes)": "82fbdc9c"
				}
			},
			"storageLayout": {
				"storage": [
					{
						"astId": 9,
						"contract": "notary/NotaryPublic.sol:NotaryPublic",
						"label": "notarizations",
						"offset": 0,
						"slot": "0",
						"type": "t_mapping(t_bytes1,t_mapping(t_uint256,t_mapping(t_address,t_bytes_storage)))"
					},
					{
						"astId": 13,
						"contract": "notary/NotaryPublic.sol:NotaryPublic",
						"label": "pubkeys",
						"offset": 0,
						"slot": "1",
						"type": "t_mapping(t_address,t_bytes_storage)"
					}
				],
				"types": {
					"t_address": {
						"encoding": "inplace",
						"label": "address",
						"numberOfBytes": "20"
					},
					"t_bytes1": {
						"encoding": "inplace",
						"label": "bytes1",
						"numberOfBytes": "1"
					},
					"t_bytes_storage": {
						"encoding": "bytes",
						"label": "bytes",
						"numberOfBytes": "32"
					},
					"t_mapping(t_address,t_bytes_storage)": {
						"encoding": "mapping",
						"key": "t_address",
						"label": "mapping(address => bytes)",
						"numberOfBytes": "32",
						"value": "t_bytes_storage"
					},
					"t_mapping(t_bytes1,t_mapping(t_uint256,t_mapping(t_address,t_bytes_storage)))": {
						"encoding": "mapping",
						"key": "t_bytes1",
						"label": "mapping(bytes1 => mapping(uint256 => mapping(address => bytes)))",
						"numberOfBytes": "32",
						"value": "t_mapping(t_uint256,t_mapping(t_address,t_bytes_storage))"
					},
					"t_mapping(t_uint256,t_mapping(t_address,t_bytes_storage))": {
						"encoding": "mapping",
						"key": "t_uint256",
						"label": "mapping(uint256 => mapping(address => bytes))",
						"numberOfBytes": "32",
						"value": "t_mapping(t_address,t_bytes_storage)"
					},
					"t_uint256": {
						"encoding": "inplace",
						"label": "uint256",
						"numberOfBytes": "32"
					}
				}
			},
			"userdoc": {
				"kind": "user",
				"methods": {},
				"version": 1
			}
		}
	}
}